:020000040800F2
:100000001807002091010008F71A0008631400087F
:10001000F51A0008CB040008751C00080000000059
:10002000000000000000000000000000FB1A0008B3
:10003000CD04000800000000F91A0008FD1A0008AD
:10004000AB010008AB010008AB010008AB010008E0
:10005000AB010008AB010008AB010008AB010008D0
:10006000AB010008AB010008AB010008AB010008C0
:10007000AB010008AB010008AB010008AB010008B0
:10008000AB010008AB010008AB010008AB010008A0
:10009000AB010008AB010008AB010008AB01000890
:1000A000AB010008AB010008AB010008AB01000880
:1000B000AB010008AB010008AB010008AB01000870
:1000C000AB010008AB010008AB010008AB01000860
:1000D000AB010008AB010008AB010008AB01000850
:1000E000CF040008AB010008AB01000800F002F8E3
:1000F00000F03FF80AA090E8000C82448344AAF183
:100100000107DA4501D100F034F8AFF2090EBAE880
:100110000F0013F0010F18BFFB1A43F0010318473B
:1001200084220000A4220000103A24BF78C878C1BD
:10013000FAD8520724BF30C830C144BF04680C60ED
:10014000704700000023002400250026103A28BF35
:1001500078C1FBD8520728BF30C148BF0B60704739
:10016000642900F07D80002070471FB51FBD10B5C9
:1001700010BD00F070F91146FFF7F7FF01F0A4FD84
:1001800000F08EF903B4FFF7F2FF03BC00F096F91C
:100190000948804709480047FEE7FEE7FEE7FEE71B
:1001A000FEE7FEE7FEE7FEE7FEE7FEE70448054957
:1001B000054A064B70470000551B0008ED0000087B
:1001C0001801002018070020180300201803002041
:1001D0000FB41CB5074B06AA7B44694600900598EE
:1001E00000F021F90020694600F030F91CBC5DF8F0
:1001F00014FB0000710200002DE9F0410E46044698
:10020000002020622046E168884730B3252805D0C9
:10021000D4E901219047206A401CF2E7E1682046BA
:1002200000278847050018D0A5F14100192802D8F9
:1002300020354FF400673246294620462760FFF7F5
:100240008FFF40B1012804D0F61D26F007060836BE
:10025000D8E7361DD6E72846DAE7206ABDE8F08100
:100260002DE9F0410646002410687529314616A58F
:1002700010D0AFF30080002802DA404213A507E057
:1002800031688A0701D512A502E0490704D511A5F6
:10029000012401E0AFF3008000210A2206F12407C7
:1002A00009E0B0FBF2FCB0FBF2F302FB1C003030C3
:1002B00078541846491C0028F3D123462A46304674
:1002C000BDE8F04100F051B8000000002D00000032
:1002D0002B0000002000000010B5431C02E010F8C5
:1002E000011B71B18107FAD14FF0013202C88C1A9B
:1002F0008C4314EAC211F9D0C01A0A0603D0C01EFA
:1003000010BDC01A10BD0A0401D0801E10BD090224
:10031000FCD0401E10BD4FF0000200B513469446BD
:100320009646203922BFA0E80C50A0E80C50B1F14D
:100330002001BFF4F7AF090728BFA0E80C5048BF61
:100340000CC05DF804EB890028BF40F8042B08BFFF
:10035000704748BF20F8022B11F0804F18BF00F8FB
:10036000012B70477047704770472DE9F0470D46E5
:1003700099469246044600F124080168880604D58F
:10038000E06921F01001216000E00120A84201DDB8
:10039000471B00E00027A1697A1902EB0900081A3F
:1003A000A0612078C00602D42046AFF3008000266A
:1003B00008E0D4E901211AF806009047206A401CA1
:1003C000761C20624E45F4DB2078C0060AD5204614
:1003D000AFF3008006E0D4E9012130209047206A85
:1003E000401C2062381EA7F10107F4DC07E0D4E9C5
:1003F000012118F805009047206A401C2062281E41
:10040000A5F10105F3DC2046AFF30080207800065B
:1004100002D50220BDE8F0870120FBE701694A1CF4
:1004200002610878704700B58FB0CDE90131002135
:10043000059105497944CDE9031011466846FFF757
:10044000DBFE0FB000BD0000E5FFFFFF0A6802F809
:10045000010B0A607047754600F02CF8AE460500A7
:100460006946534620F00700854618B020B5FFF7CF
:100470009DFEBDE820404FF000064FF000074FF012
:1004800000084FF0000B21F00701AC46ACE8C009B2
:10049000ACE8C009ACE8C009ACE8C0098D467047BB
:1004A00010B50446AFF300802046BDE81040FFF7CA
:1004B00069BE000000487047B400002001491820C0
:1004C000ABBEFEE7260002007047FEE770474FF420
:1004D000005000F021B8000002A1044801F0DCFB4C
:1004E00072B6FEE74572726F720000007000002065
:1004F00070B5044600F012F90546601C02D00448AD
:100500000078044400F00AF9401BA042FAD370BD01
:100510000C00002070470000044910B50A68024230
:1005200002D00860FFF7F6FF10BD00001404014080
:100530002DE9F84FDFF8B891002409F1040A0AF117
:10054000040B23460F270BF1040EC9E00125A5403B
:100550002A40AA427DD1674ED1F804C0ACEB060810
:10056000B44532D014DCBCF1030F3AD009DCBCF145
:10057000000F2AD0BCF1010F1CD0BCF1020F31D109
:100580001DE0BCF1110F17D0BCF1120F2AD119E0F8
:10059000B8F5881F19D006DCB8F5803F15D0B8F53E
:1005A000801F1FD111E0B8F5001F0ED0B8F5041F51
:1005B00018D10AE0CB6815E0CB681B1D12E0CB68B0
:1005C00008330FE0CB680C330CE08B682BB1012BA8
:1005D0004FF0080303D0456104E0042302E0056105
:1005E00000E00023FF2A01D8064601E000F10406DE
:1005F0004FEA840501D9A5F12005D6F8008007FA55
:1006000005FC28EA0C0803FA05F548EA0508C6F8CF
:1006100000804D68ED0062D5374DAE6946F00106A9
:10062000AE61AD6924F0030605F001050095334D78
:1006300006EB050CDCF80850A607360F07FA06F89B
:1006400025EA0805DFF8B880404503D14FF00008DF
:1006500017E044E0DFF8AC80404502D14FF00108DC
:100660000FE0DFF8A480404502D14FF0020808E017
:10067000DFF89880404502D14FF0030801E04FF0C9
:10068000040808FA06F848EA0508CCF808804D681E
:10069000D9F80060ED034D4601D5164300E09643BE
:1006A0002E604D68DAF80060AD03554601D516435B
:1006B00000E096432E604D68DBF80060ED025D4679
:1006C00001D5164300E096432E604D68DEF80060C9
:1006D000AD02754601D5164300E096432E60641CBA
:1006E0000D682A46E5407FF431AFBDE8F88F000081
:1006F0000004014000001110001002400000014001
:1007000000080140000C01400010014000140140AD
:100710000AB1016170470904FBE7000001488068E5
:10072000704700000C00002070B5040025D094F83C
:100730003D00002520B984F83C50204600F078FAAE
:10074000242084F83D002068016821F00101016047
:100750002068016841F4004101602068016821F4CB
:100760000041016000F0CAFB4D4A6168914201D826
:100770004C4900E04C49884201D2012070BD4B49F0
:100780002368B0FBF1F15E6826F03F060E435E6021
:100790006368934206D94FF4967359434FF47A73C2
:1007A000B1FBF3F12368491C1E6A26F03F06314372
:1007B00019626168914210D84900401EB0FBF1F205
:1007C000521CC2F30B02042A01D2042022E0B0FB27
:1007D000F1F0401CC0F30B001CE0A268F2B301EB87
:1007E000C10303EB0116431EB3FBF6F35B1C43F49A
:1007F00080431B0549D092B301EBC10202EB01110A
:10080000401EB0FBF1F0401CC0F30B0040F48040F0
:1008100040F400402168CA694CF6FF739A431043C4
:10082000C861D4E9071001432068026822F0C002C1
:1008300011430160D4E9030101432068826848F252
:10084000FF339A4311438160D4E9050108432168CD
:10085000CA6822F0FF021043C86001E00EE016E013
:100860002068016841F0010101602564202084F8BE
:100870003D00256384F83E50002070BD01EB410629
:10088000431EB3FBF6F35B1CB3E70120C2E701EBA9
:100890004101401EB0FBF1F0401CC0F30B00B7E774
:1008A000A086010080841E0000093D0040420F0028
:1008B0002DE9FF4F83B00025DDE910799A46934674
:1008C0000446DDF848800095FFF728FF064694F8B7
:1008D0003D0020287CD1192301228549204600961D
:1008E00000F0D0FE0028F5D194F83C0001286FD02C
:1008F000012084F83C0020680168C90703D1016821
:1009000041F0010101602068016821F4006101608B
:10091000222084F83D00402084F83E002564676270
:10092000A4F82A90608D20857248E062CDE90086A7
:1009300053465A462046049900F0ACFD00287DD16C
:10094000208DDFF8B491202768B1012814D0022847
:10095000206801681ED041F480610160206841690F
:1009600080690090B6E02068416981690091016862
:1009700041F400710160ADE02068016821F48061FC
:10098000016072B62068416981690091016841F493
:1009900000710AE041F40061016072B620684169AB
:1009A00081690091016821F48061016062B691E083
:1009B000032868D801280CD0022843464FF00002D3
:1009C0004946204600960FD000F05CFEB0BB10E018
:1009D0008BE032464146204600F0D3FE70BB2068D3
:1009E0000069616A08706CE000F04CFE30BB72B6C2
:1009F00034E02068016821F48061016072B62068EB
:100A00000069616A0870606A401C6062208D401E47
:100A10002085608D401E6085384846F2A811006828
:100A2000B0FBF1F0C0EBC00000EB80000090401E76
:100A3000009008D020684069C04300E029E04007EA
:100A40000CD50098F3E744F8305F6773A57320690D
:100A500040F02000206162B625731AE0206801682A
:100A600041F40071016020680069616A0870606A81
:100A7000401C6062218D491E2185618D491E618562
:100A800062B621681BE032464146204600F079FEFE
:100A900018B1012007B0BDE8F08F20680069616AD5
:100AA0000870606A401C6062218D491E2185618D3D
:100AB000491E618521684A69D24352070AD40969EF
:100AC0000170606A401C6062208D401E2085608D30
:100AD000401E6085208D00287FF46AAF84F83D7049
:100AE00084F83E5084F83C50D4E70220D2E700005E
:100AF000020010000000FFFF0400010018000020A9
:100B00002DE9FF4F83B09A46DDE9119793460446DD
:100B1000DDF84080FFF702FE054694F83D002028EE
:100B20007FD11923012240492046009500F0AAFDFB
:100B3000002876D194F83C00012872D0012084F876
:100B40003C0020680168C90703D1016841F0010138
:100B500001602068016821F400610160212084F8AF
:100B60003D00402084F83E0000262664C4F824801E
:100B7000A4F82A90608D20852C48E062CDE90075AC
:100B800053465A462046049900F002FD70B930E001
:100B90002A463946204600F027FE58B1206C04282A
:100BA00004D12068016841F400710160012007B0A0
:100BB000BDE8F08F606A216800780861606A401CB7
:100BC0006062218D491E89B22185628D521E628527
:100BD00022685369DB435B070BD469B1007810616D
:100BE000606A401C6062208D401E2085608D401E22
:100BF0006085208D0028CBD12A463946204600F05A
:100C00001BFD0028CAD154F83D0B016841F4007166
:100C10000160202004F81E09E67766770020C6E709
:100C2000FFE70220C3E70000020010000000FFFF02
:100C300010B586B0002100910191029103910068E6
:100C40001349884222D1134CA06940F00800A061EA
:100C5000A069694600F0080004904FF440700090CD
:100C600012200190032003900B48FFF761FC0B4812
:100C7000416841F0E06141F002014160E06940F407
:100C80000010E061E06900F40010049006B010BDAF
:100C90000054004000100240000C014000000140E0
:100CA0000248816802781144816070470C0000207E
:100CB000074810B5016841F010010160032000F001
:100CC00075F8002000F006F800F024F8002010BDB0
:100CD0000020024070B50D4D04464FF47A7128781B
:100CE000B1FBF0F00A490968B1FBF0F000F0ECFA52
:100CF00048B9102C07D200222146501E00F036F8C9
:100D000000206C6070BD012070BD00000C00002050
:100D1000180000200C4808B5816941F0010181618B
:100D2000816901F001010091C16941F08051C16107
:100D3000C06900F0805000900448416821F0E061F3
:100D400041F00071416008BD001002400000014008
:100D5000002809DB00F01F020121914040098000BA
:100D600000F1E020C0F8001170470000F0B40E4B15
:100D70001B680C46C3F30223C3F10705042D00D9F9
:100D80000425191D072901D2002300E0DB1E0126DE
:100D900006FA05F1491E214099409E40761E1640F4
:100DA0003143F0BC00F067BF0CED00E0064900F0F5
:100DB000070208684FF6FF03184040EA0220034A82
:100DC00010430860704700000CED00E00000FA05D9
:100DD0002DE9F0470F46050061D0434E306800F022
:100DE0000700B84209D2306820F00700384330606D
:100DF000306800F00700B84251D128683B4C8107A9
:100E000012D5400703D5606840F4E0606060287840
:100E1000000703D5606840F4605060606068A968AE
:100E200020F0F000084360602878C00728D0686888
:100E3000012810D02168022810D0890700292EDA55
:100E4000616821F0030101436160FFF767FC8046A0
:100E500041F288390DE021688903EFE78901EDE768
:100E6000FFF75CFCA0EB0801494502D90320BDE86F
:100E7000F0876068696800F00C00B0EB810FEFD17B
:100E8000306800F00700B8420BD9306820F0070046
:100E900038433060306800F00700B84201D00120CC
:100EA000E5E72878400705D56068E96820F4E06048
:100EB000084360602878000706D56068296920F437
:100EC000605040EAC100606000F038F86168084A8C
:100ED000C1F30311515CC840064908600648006828
:100EE000FFF7F8FE0020C2E7002002400010024099
:100EF0008C23000818000020100000200448054939
:100F000000684968044AC1F30221515CC840704737
:100F100018000020001002409C23000804480549E6
:100F200000684968044AC1F3C221515CC840704757
:100F300018000020001002409C23000812A185B078
:100F40000FC98DE80F0014A0144A0068049051687E
:100F5000134801F00C03042B10D0082B0ED1C1F361
:100F60008343C9031DF803000AD5516804AAC1F3DD
:100F70004041515C0A4A5043B0FBF1F005B0704764
:100F800008494843FAE70000020304050607080978
:100F90000A0B0C0D0E0F1010010200000010024091
:100FA00000127A0000093D002DE9F84F040070D0CE
:100FB0002078C04DC00749D06868C0F3810001287F
:100FC00007D06868C0F38100022809D16868C003AF
:100FD00006D52868800339D560680028E7D035E059
:100FE0006068B0F5803F0BD010B1B0F5A02F11D0E4
:100FF000286820F480302860286820F4802002E0EF
:10100000286840F480302860606890B1FFF786FB64
:1010100006460AE0286840F480202860F0E700BF18
:10102000FFF77CFB801B642873D828688003F7D502
:101030000CE0FFF773FB064605E000BFFFF76EFB11
:10104000801B6428F0D828688003F7D420789A4E53
:1010500080074FF001094FF0000839D5686810F09B
:101060000C0F07D06868C0F38100022809D16868B6
:10107000C00306D42868800714D52069012808D148
:1010800010E02069B0B1C6F80090FFF747FB0746B3
:1010900005E00AE1FFF742FBC01B0228C4D828681C
:1010A0008007F7D52868616920F0F80040EAC100A0
:1010B00028600DE0C6F80080FFF730FB074604E02B
:1010C000FFF72CFBC01B022823D828688007F7D421
:1010D000207800072CD57948A169D9B1C0F80090D3
:1010E000FFF71CFB074604E0FFF718FBC01B0228B4
:1010F0000FD8686A8007F7D571484FF4FA51006835
:10110000B0FBF1F0009000BF0098411E0091FAD2B0
:101110000EE080E0C0F80080FFF700FB074604E027
:10112000FFF7FCFAC01B022875D8686A8007F7D45D
:101130002078400760D5E8690027C00008D4E86936
:1011400040F08050E861E869012700F0805000908D
:101150005C480168C90513D40168834641F4807175
:101160000160FFF7DBFA824606E000BFFFF7D6FA20
:10117000A0EB0A0064284ED8DBF80000C005F5D5C6
:10118000E06801280AD008B1052813D0286A20F0A9
:1011900001002862286A20F0040002E0286A40F07A
:1011A00001002862E06841F2883B98B1FFF7B6FA87
:1011B00082460BE0286A40F004002862EEE700BF98
:1011C000FFF7ACFAA0EB0A0159455AD8286A800704
:1011D000F6D50CE0FFF7A2FA824605E0FFF79EFA8B
:1011E000A0EB0A0159454CD8286A8007F6D41FB1F4
:1011F000E86920F08050E861E06988B36968C1F36C
:101200008101022944D00228C6F8608004D0FFF78B
:1012100085FA044638E034E0FFF780FA074604E038
:10122000FFF77CFAC01B02282BD828688001F7D46E
:10123000206AB0F5803F05D16868A16820F40030CD
:1012400008436860D4E908010843696821F474110F
:1012500008436860C6F86090FFF760FA044606E04D
:1012600025E000BFFFF75AFA001B022809D82868BA
:101270008001F7D51BE000BFFFF750FA001B0228E2
:1012800002D90320BDE8F88F28688001F4D40EE06D
:101290000128F7D06868226A00F48031914204D1B5
:1012A000616A00F47010884201D00120EAE7002052
:1012B000E8E7000000100240000042428004424281
:1012C000180000200070004010B5401EB0F1807F73
:1012D00001D3012010BD4FF0E02460610F216017A1
:1012E00000F0C9FC0020A06107202061002010BD93
:1012F00070B5040004D094F83D00002510B106E05C
:10130000012070BD84F83C50204600F023F82420D2
:1013100084F83D002068C16821F40051C160204676
:1013200000F01AFC2068016921F4904101612068F5
:10133000416921F02A0141612068C16841F40051EE
:10134000C1602564202084F83D0084F83E00002020
:1013500070BD000000B585B000210091019102919F
:10136000039100680F49884219D10F48C16941F4BF
:101370000031C161C16901F400310491816941F01A
:10138000040181618069694600F0040004900C202A
:1013900000900220019003900448FFF7C9F805B0BF
:1013A00000BD000000440040001002400008014061
:1013B0002DE9F843044690F83D001F4616460D46B9
:1013C00020284CD1C5B1BEB194F83C00012846D0CC
:1013D000012084F83C004FF00008C4F84080212030
:1013E00084F83D00FFF79AF9A6848146E684A06858
:1013F000B0F5805F03D004E00120BDE8F8832069E8
:1014000028B12E465FF0000584F83C800EE00026EF
:10141000FAE78021204600F0FBFBA0B9AEB116F838
:10142000010B21684860E08C401EE084E08C4B4654
:101430004FF0000200970028EBD14FF0400120460A
:1014400000F0E6FB30B10320D7E735F8020BC0F31C
:101450000800E6E7202084F83D000020CDE70220C8
:10146000CBE7FEE701684A69D24352050FD46FF417
:1014700080624A61002140F8301F2022427381734C
:10148000026942F0040202610173012070470020EA
:10149000704700002DE9F84F0446006889460B9D0F
:1014A00001689846174641F4806101602068016830
:1014B00041F48071016000954FF0011B00225946F4
:1014C00020460A9B00F0DEF84FF4007A40B1206815
:1014D0000068C00501D5C4F840A00320BDE8F88F1E
:1014E000216809F0FE0008612B46284920460A9A27
:1014F00000F0FCF8F0BB20684169806900902A4642
:1015000020460A9900F070F940B1206C04283AD1C5
:101510002068016841F40071016034E0FEB2B8F166
:10152000010F09D02168380A08612A4620460A9925
:1015300000F05AF90028E8D1206806612A462046C2
:101540000A9900F051F90028DFD12068016841F4C0
:101550008071016000950022594620460A9B00F0E8
:1015600091F80028B3D1216809F0FF0040F0010094
:10157000086100E007E02B46044920460A9A00F083
:10158000B5F80028AAD00120A8E700000200010059
:101590002DE9F843044600680D46DDE90897016827
:1015A0009846164641F4807101604B4600224FF088
:1015B00001112046009700F065F848B120680068E6
:1015C000C00502D54FF4007020640320BDE8F88305
:1015D000216805F0FE0008613B464A461549204651
:1015E00000F084F888B920684169806900903A4623
:1015F0004946204600F0F8F848B1206C042804D190
:101600002068016841F4007101600120DEE7F5B255
:10161000B8F1010F09D02168300A08613A464946FD
:10162000204600F0E1F80028E7D12068056100209D
:10163000CCE700000200010070B516460D460446D6
:101640000DE02046FFF70EFF08B1012070BD681CB9
:1016500005D0FFF763F8801BA84207D835B1206892
:101660004069C0434007ECD4002070BD002044F81E
:10167000300F20216173A073216941F020012161A5
:101680002073E2E72DE9F0471E4690460D460446DA
:10169000C1F30747DDF8209008E0701C06D0FFF783
:1016A0003DF8A0EB0900B0420FD876B12068012FB9
:1016B00018D0806925EA00000004000C14D0002135
:1016C0004145EAD00020BDE8F087002044F8300F03
:1016D00020216173A073216941F0200121612073F1
:1016E0000120F0E74069E5E70121E9E72DE9F0474E
:1016F0009A4691460E46044600254FF02008C1F355
:10170000074725E020684069C043400514D420689D
:10171000016841F40071016021686FF480604861E4
:10172000256384F83D8084F83E50206C40F004002E
:10173000206484F83C501FE0B9F1FF3F08D0FEF769
:10174000EDFFA0EB0A0149450CD8B9F1000F09D013
:101750002068012F13D0806926EA00000004000CE5
:101760000BD0CFE744F8305F84F80D80A573206973
:1017700040F02000206125730120BDE8F08740691A
:10178000EAE72DE9F041002590460E460446202761
:1017900017E04069C043C0060CD454F8301B6FF00A
:1017A0001000486144F810596777A577206A2062D5
:1017B000257717E0FEF7B2FFA0EB0800B04208D88B
:1017C0003EB120684169C9434906E2D40020BDE822
:1017D000F08144F8305F6773A573206940F0200002
:1017E000206125730120F2E770B516460D460446C8
:1017F0000DE02046FFF736FE08B1012070BD681CE1
:1018000005D0FEF78BFF801BA84207D835B12068B2
:101810004069C0430006ECD4002070BD002044F8AD
:10182000300F20216173A073216941F020012161F3
:101830002073E2E72DE9F04385B091460E468046DD
:101840004FF47A72062103A88DE8070001233B229A
:10185000D0211C48FFF72CF8BDF80C001A4940BAFB
:1018600000B20880BDF80E2052BA15B24D80BDF806
:10187000102052BA14B28C806421484300F03CFC22
:101880006FF00D073A4600F03BFD00F0A3FAC8F8F0
:1018900000006420684300F02FFC3A4600F030FD61
:1018A00000F098FA30606420604300F025FC3A466E
:1018B00000F026FD00F08EFAC9F8000005B0BDE882
:1018C000F08300001C000020000000202DE9F04300
:1018D00085B09146884606464FF47A72062103A8E1
:1018E0008DE8070001234322D0211B48FEF7E0FFCB
:1018F000BDF80C0040BA01B21848C180BDF80E20F6
:1019000052BA15B20581BDF8102052BA14B2448102
:10191000084600F0F1FB124F00223B4600F094FA1B
:1019200000F058FA3060284600F0E6FB00223B4603
:1019300000F08AFA00F04EFAC8F80000204600F0E5
:10194000DBFB00223B4600F07FFA00F043FAC9F8C7
:10195000000005B0BDE8F0831C000020000000205E
:1019600000606040F0B585B0012504A8CDE9000510
:101970004FF47A742B467522D02102942348FEF747
:1019800097FF9DF8100068283DD180208DF80C004D
:1019900003AE0096CDE9015401236B22D0211B48F0
:1019A000FFF7AEF80520FEF7A3FD00278DF80C70B9
:1019B0000096CDE9015401236B22D0211348FFF793
:1019C0009FF807208DF80C000096CDE90154012303
:1019D0001922D0210D48FFF793F88DF80C7000966E
:1019E000CDE9015401231C22D0210848FFF788F8D3
:1019F0008DF80C700096CDE9015401231B22D021F3
:101A00000248FFF77DF805B0F0BD00001C00002083
:101A100030B585B0002424480094019402940394C6
:101A2000816941F010018161816901F01001049127
:101A3000816941F020018161816901F020010491F7
:101A4000816941F004018161816901F0040104911F
:101A5000816941F0080181618069144D00F008003E
:101A60000490002220212846FEF752FE68140090C0
:101A70000F48CDE9010469460E48FEF759FD2020C4
:101A800000900120CDE90104022003906946284618
:101A9000FEF74EFD002211462820FFF767F92820A7
:101AA000FFF756F905B030BD0010024000080140B4
:101AB00000001110001001400C4810B50A490160E7
:101AC0000B49416000214FF480428160C0E903125C
:101AD00041618161C1610162FEF726FE002801D0EB
:101AE000FEF7FAFC10BD0000005400401C0000206E
:101AF000A0860100FEE7FEE770477047FFF7D0B809
:101B000030B58FB028216846FEF705FC14210AA8DD
:101B1000FEF701FC0225012004900095102005909D
:101B200000240004CDE9084007956846FFF73CFA19
:101B300060B90F20CDE90A056802CDE90C4000210B
:101B40000AA80E94FFF744F9002801D0FEF7C4FC60
:101B50000FB030BD7047000070B5044600680169E1
:101B6000E26821F44051114301612169A0680843F2
:101B7000616908432168CA6841F20C639A430243D1
:101B8000CA6020684169A26921F440711143416132
:101B90001E492068884202D1FFF7C0F901E0FFF733
:101BA000ADF900EBC00101EB001260686421800018
:101BB000B2FBF0F3B3FBF1F36FF018067343B2FB23
:101BC000F0F5B2FBF0F605EB8305322303EB0515C8
:101BD000B5FBF1F5B6FBF1F605F0F00505EB0615E2
:101BE000B2FBF0F6B2FBF0F0B0FBF1F06FF01802D0
:101BF000504306EB800003EB0010B0FBF1F02168CE
:101C000000F00F002844886070BD000000380140DB
:101C10002DE9F041984617460E460446069D1DE004
:101C2000681C1BD02DB1FEF779FDA0EB0800A8427F
:101C300014D92068C16821F4D071C160206841695D
:101C400021F001014161202084F83D0084F83E002C
:101C5000002084F83C000320BDE8F0812068006883
:101C600036EA000004D00020B842D9D00020F3E7C3
:101C70000120F9E7FEE70907090E002804DB00F15F
:101C8000E02080F80014704700F00F0000F1E02021
:101C900080F8141D7047000038B505460C4608460C
:101CA000FEF71AFB82B20A2321462846FFF780FB83
:101CB00004A00A2300680090022269462846FFF724
:101CC00077FB38BD0D0A000098B0FEF7F1FFFFF773
:101CD00017FFFFF79DFEFFF7EFFE384836490C224D
:101CE00001604FF4E131416000218160C160C0E9D1
:101CF00004128161C161FFF7FBFA08B1FEF7ECFB4A
:101D0000FFF730FE2EA12D48FFF7C6FF14AA13A936
:101D100012A8FFF78FFD129800F05AFA02462CA184
:101D20006846FEF755FA139800F052FA024628A1C9
:101D300003A8FEF74DFA149800F04AFA024624A1CF
:101D400006A8FEF745FA69461C48FFF7A5FF03A958
:101D50001A48FFF7A1FF06A91848FFF79DFF17AA29
:101D600016A915A8FFF7B2FD159800F031FA024642
:101D700017A109A8FEF72CFA169800F029FA0246D6
:101D800013A10CA8FEF724FA179800F021FA0246D6
:101D90000FA10FA8FEF71CFA09A90848FFF77CFF5E
:101DA0000CA90648FFF778FF0FA90448FFF774FF56
:101DB0006420FEF79DFBA9E700440040700000206E
:101DC000496E697420636F6D706C65746500000006
:101DD0002564000021F00042A2F16052B2F5801F9C
:101DE00001F0004328BFD2F17F6C0BD95FEA001CE1
:101DF00043EAC20242EB507018BF704728BF20F080
:101E000001007047B2F5801FBCBF184670474FEA0B
:101E1000410C1CF5001F02D2084600F03ABA70B51A
:101E200000F081F900000089FFF7F6BF4FF0004095
:101E3000A0F580007047000002494FF0000000F05C
:101E40002DBA00BF0000F87F2DE9C04130B4DFF8A3
:101E5000A0C23CEA111418BF3CEA131400F0EC8055
:101E600081EA03051CEA111444EAD57418BF1CEA80
:101E7000131500F0C780A4EB05044FF0004545EAB8
:101E8000C12145EAC32341EA505143EA525304F1C8
:101E90007F74994204F500344FEAC0204FEAC22211
:101EA00008BF904200F09C804FEA13650FF2401685
:101EB000765D4FEA134506FB05F7C7F1807706FB11
:101EC00007F74FEAD737A7FB03687642C8F5803893
:101ED000A7FB06CE38BFA8F1010807FB08E64FF0C4
:101EE000000EA6FB028CE6FB03CEDCF1000CCEF16B
:101EF000004E38BFAEF1010EA6FB0C584FF00007A4
:101F00004FF00005E6FB0E87A1FB08C6A0FB07CE3D
:101F100016EB0E0645F10005E1FB076515F1E04EF5
:101F20007EBFA4F580345FEA46066D4116F1800756
:101F300045F100054FEA17274FEA066647EA0567AD
:101F4000A6F1DE46B6F1805F4FEA15251FD9384667
:101F500024F0010C05EBC471BCF1FE6F01EB0C1118
:101F600002D8F0BCBDE8008124425CBF01F5801EB0
:101F70009EEAC47F02D4F0BCBDE80081244238D47C
:101F8000F0BCA1F1C041BDE8004100F01AB94FEA30
:101F9000D22242EA43524FEAD323A7FB02864FEAFA
:101FA000D02040EA415007FB03661EEA0E0F4FEABD
:101FB000D12105FB026658BFA6EB0056B6EB0056D2
:101FC0004FEA520E4EEAC37E18EB0E0E56EB530E3E
:101FD000BDD518EB02085E417F1C55F10005B6E740
:101FE0004FF480154FF000074FF000064FF0000847
:101FF000ADE7F0BC4FF0000001F1C04101F000413D
:10200000BDE8008111EA0C1F0CEA131500D00CE0AA
:1020100013EA0C1F00F025804FF00000F0BC81EAAD
:10202000030101F00041BDE80081F0BCBDE80041C2
:1020300081EA030100F0C5B8F0BCBDE8004170B50D
:1020400000F071F8097EFC3E00F007B881EA030158
:102050004FF0000001F00041704781EA030100F0F9
:10206000B0B8F0BCBDE800414FF000002149704716
:10207000FFFDFBF9F7F5F4F2F0EEEDEBE9E8E6E44D
:10208000E3E1E0DEDDDBDAD8D7D5D4D3D1D0CFCDD4
:10209000CCCBCAC8C7C6C5C4C2C1C0BFBEBDBCBB0D
:1020A000BAB9B8B7B6B5B4B3B2B1B0AFAEADACAB08
:1020B000AAA9A8A8A7A6A5A4A3A3A2A1A09F9F9EE2
:1020C0009D9C9C9B9A999998979796959594939394
:1020D000929191908F8F8E8E8D8C8C8B8B8A89892B
:1020E00088888787868585848483838282818180AE
:1020F0000000FF070000F87F10F0004248BF404298
:10210000B0FA80F310FA03F10AD0C3F11D0303F50E
:1021100080634FEA415002EB035202EBD12170473A
:102120004FF0000070470EF1020E2EF0030E5EF825
:10213000046B364205D4012A43EB030515F5001F55
:1021400012D8012841EB010C1CF5001F0CD80ED150
:102150004FEAD17C15F5001F0CEB4C0C0CF1020C76
:1021600008BF4CEBD37C04E04FF0080C01E04FEAD1
:10217000D37C0CEB4C0526FA05F606F00706B6F103
:10218000040C06D20EEB860CBDE870404CF0010C3E
:102190006047DFE80CF0090B02024FF000414FF0FE
:1021A0000000A1F5002170BD19461046012851EB31
:1021B000010418BFD4F5001484BF002001F00041D1
:1021C00070BD0808A0F500114FEA3101704700000A
:1021D00041000B0ED3F19E0208D950F400034FEAE0
:1021E000032323FA02F048BF4042704710B500F0C5
:1021F0000AF800BF49922480002070476FF0004227
:1022000082EA200070470EF1020E2EF0030E5EF8F7
:10221000044B244204D44FEA4102B2F17F4F11D85B
:102220004FEA4003B3F17F4F0CD80ED14FEAD07C78
:10223000B2F17F4F0CEB4C0C0CF1020C08BF4CEBD5
:10224000D17C04E04FF0080C01E04FEAD17C0CEBAC
:102250004C0324FA03F404F00704B4F1040C06D28E
:102260000EEB840CBDE810404CF0010C6047DFE839
:102270000CF0070802024FF00040A0F5800010BDEE
:102280000846420018BFD2F1807288BF00F00040BB
:1022900010BDFF2141EAD050C00570470CF00F037C
:1022A000092B08BF082000F059800A2B0BD0082BFF
:1022B00018BF704708BF1CF0400F0AD04FF0000055
:1022C0004FF0000170471CF0400F18BF4FF0004066
:1022D00070471CF0100F08D020F0704300F07F42D0
:1022E00042EAD3014FEA4370704700F0604021F0AA
:1022F0007F4242EA000201F07F4040EA727070477C
:102300004FF0FF0C4CF4E06C1CEA11531CBF9CEA2C
:10231000030C9445C2BFDA4201EB02517047002B17
:102320000DD0BCF1000F0FD0002A01F00041A4BF76
:1023300041F0E04141F07F614FF00000704701F053
:1023400000414FF00000704750EA01334FF09B0C02
:1023500018BF4CF0806C7FF46FAD70471CF4801F89
:1023600011D01CF4E02F03D06FEACC314900704744
:102370004FF04050EFF3008222F0704242EA000238
:1023800082F3008870474FF00000704700000000A3
:102390000000000001020304060708090000000015
:1023A00001020304C4230008000000201C000000F8
:1023B00028010008E02300081C000020FC060000A3
:1023C00044010008000000000000000000000000C0
:1023D0000100000010000000000000000024F400D4
:04000005080000ED02
:00000001FF
