:020000040800F2
:10000000A8070020A1010008D72D0008BF24000880
:10001000D52D00086D120008B13100080000000065
:10002000000000000000000000000000DB2D0008C0
:100030006F12000800000000D92D0008DD2D000817
:10004000BB010008BB010008BB010008BB010008A0
:10005000BB010008BB010008BB010008BB01000890
:10006000BB010008BB010008BB010008BB01000880
:10007000BB010008BB010008BB010008BB01000870
:10008000BB010008BB010008BB010008BB01000860
:10009000BB010008BB010008BB010008BB01000850
:1000A000BB010008BB010008BB010008BB01000840
:1000B000BB010008BB010008BB010008BB01000830
:1000C000BB010008BB010008BB010008BB01000820
:1000D000BB010008BB010008BB010008BB01000810
:1000E00071120008BB010008BB01000800F002F813
:1000F00000F047F80AA090E8000C82448344AAF17B
:100100000107DA4501D100F03CF8AFF2090EBAE878
:100110000F0013F0010F18BFFB1A43F0010318473B
:100120003454000054540000103A24BF78C878C1F9
:10013000FAD8520724BF30C830C144BF04680C60ED
:10014000704700000023002400250026103A28BF35
:1001500078C1FBD8520728BF30C148BF0B60704739
:10016000662905F09280002070471FB500F002FB61
:1001700004000020002104F003F8E0601FBD10B56A
:1001800010BD00F0FBFB1146FFF7EFFF03F034FA60
:1001900000F019FC03B4FFF7F2FF03BC00F05CFCB5
:1001A0000948804709480047FEE7FEE7FEE7FEE70B
:1001B000FEE7FEE7FEE7FEE7FEE7FEE70448054947
:1001C000054A064B70470000352E0008ED00000878
:1001D000A8010020A8070020A8030020A8030020F1
:1001E0000FB41CB5074B06AA7B44694600900598DE
:1001F00000F0A7FA0020694600F0B6FA1CBC5DF8D2
:1002000014FB00007D0500002DE9F0410E46044678
:10021000002020622046E168884730B3252805D0B9
:10022000D4E901219047206A401CF2E7E1682046AA
:1002300000278847050018D0A5F14100192802D8E9
:1002400020354FF400673246294620462760FFF7E5
:1002500087FF40B1012804D0F61D26F007060836B6
:10026000D8E7361DD6E72846DAE7206ABDE8F081F0
:1002700010B5431C02E010F8011B71B18107FAD1DF
:100280004FF0013202C88C1A8C4314EAC211F9D023
:10029000C01A0A0603D0C01E10BDC01A10BD0A0441
:1002A00001D0801E10BD0902FCD0401E10BD4FF0D1
:1002B000000200B5134694469646203922BFA0E8B6
:1002C0000C50A0E80C50B1F12001BFF4F7AF0907C2
:1002D00028BFA0E80C5048BF0CC05DF804EB8900B3
:1002E00028BF40F8042B08BF704748BF20F8022BF6
:1002F00011F0804F18BF00F8012B7047704770470E
:10030000704710B500F03AFA006810BD10B5044609
:1003100000F034FA046010BD70472DE9FF4F0C4621
:100320001E464FF0FF378BB0D2E90001DDF8608048
:100330000A908A46C1F30A5505B93D460021084690
:100340004FF00000BAF1000F00F4400005DA00EBB6
:1003500080004FF4400101EA50004FEA9059B9F192
:10036000010F00DDB9460A9850EA4A000ED044F663
:100370001050A5F2FF3545432F14B8F1000F1ED0E1
:100380007542291E1EDDC9F100021CE0B8F1010F03
:100390004FF0000001D0302103E0F24305E021548A
:1003A000401CB042FBDB30460022002121540B9957
:1003B000C1F80880C1E900200FB0BDE8F08FBD1B77
:1003C0006D1CDEE74A4600DA694206A800F060FAD2
:1003D00006AB93E8070003AB83E8070050460A9991
:1003E00000F041FB8DE80700A0F500501F38009099
:1003F0000398002D0ADD42F21F014A4608440023FB
:1004000003A90390684600F0AAFD09E0A0F500509A
:100410004A461F38002303A90390684600F0B4FD44
:100420008DE807000004000C03D04FF0FF304108B6
:1004300000E01046B8F1000F03D0002200921546EC
:100440001EE0751E05D400F09DF9303262556D1E18
:10045000F9D5B3460122084302D000227F1C04E0F4
:100460002078302801D100227F1E002A099784D0ED
:100470001DE0112D07DA00F085F9303262556D1C50
:1004800050EA0102F5D1084302D00098C8B10EE04D
:100490000021681E05E0235C625C63542254401E08
:1004A000491C8142F7DBAB46A81B401E0990002087
:1004B00004F80B000B98099AC0F80880C0E9002BDB
:1004C0007AE711264FF0000857E72DE9F04F8846EC
:1004D0000446D21D22F0070191B0D1E90001CDE917
:1004E0000A0102F066FE02460B98C00F01D02D20D3
:1004F00007E02068810701D52B2002E0202101EAD6
:10050000C000032A099001D0072A05DB03464146B3
:10051000204600F07DF90BE12078800601D5E069E6
:1005200000E00620B8F1650F814606D0B8F1660FED
:1005300018D0B8F1670F70D131E00020B9F1110F78
:10054000009001DB112301E009F101030AAA01A9CE
:100550000CA8FFF7E2FEDDE90C70002609F10105A9
:10056000834647E001204B4600904FF000470AAA1F
:1005700001A90CA8FFF7D1FEDDE90DB00C995D468D
:10058000002610B909F101000D18B9EB050003D4DC
:10059000C0F1FF3609F10105A5EB09002BE0B9F127
:1005A000010F01DA4FF001090020B9F1110F00909D
:1005B000484601DD112300E003460AAA01A90CA860
:1005C000FFF7ABFEDDE90C704D4600268346207830
:1005D00000070AD4AB4500DA5D4601A8012D04DD11
:1005E000411911F8011C302907D04F4502DA17F1E3
:1005F000040F04DA012082460FE06D1EEEE7002FA3
:1006000002DCED1B3E4403E0781CA84200DD7D1CAB
:10061000B81B00F1010A4FF000472078000703D40F
:10062000AA4501DB4FF0FF3A0021B7F1004F0DF171
:1006300043088DF8431024D002202B23002F01DA29
:100640007F422D230A21021EA0F1010000DC5FB1D0
:1006500097FBF1FC97FBF1F201FB1C7C17460CF1B8
:10066000300C08F801CDEEE7A8F1010003702188F5
:10067000090501D5452100E06521A0F1010800F838
:10068000011C09980FA9A1EB0807FF1D00B101206B
:10069000411901EBEA70A1693844081A401EA061B3
:1006A0002078C00602D42046AFF30080099828B114
:1006B000D4E901219047206A401C20622078C006BE
:1006C00022D52046AFF300801EE0002E04DBB345A8
:1006D00002DD01A8805D00E03020D4E901219047CF
:1006E000206A401C2062761CAAF101005FEA000A21
:1006F0000AD100F03FF8C0680168405CD4E90121EC
:100700009047206A401C2062281EA5F10105DCDC10
:1007100007E0D4E9012118F8010B9047206A401C3A
:100720002062381EA7F10107F3DC2046AFF30080FA
:10073000032011B041E6000001694A1C02610878FB
:10074000704700B58FB0CDE9013100210591054911
:100750007944CDE9031011466846FFF755FD0FB007
:1007600000BD0000E5FFFFFF0A6802F8010B0A6008
:10077000704700000048704764010020004870473F
:100780004401002030B5B0F10A024FEA900E71F139
:1007900000034EEA817EB0EB0E0061EB91014FEA5F
:1007A000101E4EEA017E10EB0E0041EB11114FEAD4
:1007B000102E4EEA016E10EB0E0041EB11214FEAB4
:1007C000104E4EEA014E10EB0E0041EB1141401865
:1007D00041F100014FEAD00040EA41704FEAD101F7
:1007E00010EB80054FEA810444EA907444EB010465
:1007F0006D1944EB0404521BA3414FF0000348BFA2
:100800000A3200D530BD401C41F1000130BD00006E
:100810002DE9F0411F46044603260168072A01F42A
:10082000006004DB08B116A505E016A503E008B1D9
:1008300015A500E015A521F010002060A069C01EDC
:10084000A0610FB1401EA0612046AFF300804FB100
:10085000D4E9012138469047206A401C2062C01C20
:10086000206206E0206AFAE7D4E9012115F8010BBD
:100870009047761EF8D22046AFF30080BDE8F081A5
:100880004E414E006E616E00494E4600696E660034
:100890002DE9F047814616468AB0354878440DC8A0
:1008A0008DE80D0032487844801C03AC0DC884E804
:1008B0000D0041F69B300844372190FBF1F290FB8C
:1008C000F1F5A5F1800501FB12041B3C02D5644241
:1008D000012000E00020DFF898A080460027FA44BD
:1008E000AAF1BE0A0EE0E0070AD03246684607EBDE
:1008F000470101230AEB810100F046FB8DE8070068
:1009000064107F1C002CEED1194F7F44AE3F19E0DC
:10091000E80715D007EB04100DF1180A90E80E0057
:100920008AE80E00C068F04201D19819089032465A
:10093000012306A903A800F027FB03AB83E8070007
:100940006D10641C002DE3D14FF00103324669465F
:10095000B8F1000F03A802D000F001FB01E000F0A5
:1009600013FBC9E90001C9F808200AB0BDE8F08707
:100970009C4C000000487047440100207546FFF77A
:10098000F9FFAE4605006946534620F0070085464C
:1009900018B020B5FFF712FCBDE820404FF000066C
:1009A0004FF000074FF000084FF0000B21F0070157
:1009B000AC46ACE8C009ACE8C009ACE8C009ACE89A
:1009C000C0098D46704710B50446AFF3008020463D
:1009D000BDE81040FFF7DEBB4FF0013C50F8042BA0
:1009E00051F8043B9A4221D1A2EB0C03934313EA42
:1009F000CC1317D150F8042B51F8043B9A4215D16F
:100A0000A2EB0C03934313EACC130BD150F8042B45
:100A100051F8043B9A4209D1A2EB0C03934313EA29
:100A2000CC13DBD04FF00000704700BFD01A01BAE2
:100A3000B1FA81F101F0180122FA01F0CB40C1F1C5
:100A40002001DBB2C0B2C01A2CFA01F3D11A9143D3
:100A500011EAC311E6D1704701491820ABBEFEE789
:100A60002600020070475FEA400C08BF91F0000FBB
:100A70004FEA8C234FEAC12243EA51514FEA1C50FE
:100A800018BF00F5F0404FEA300018BF41F00041B8
:100A90005FEA6C5C00F02980BCF1FF3F08BF40F0CA
:100AA00080407047130C06BF12044FF0100C4FF03B
:100AB000000C130E04BF12020CF1080C130F04BF3C
:100AC00012010CF1040C930F04BF92000CF1020C04
:100AD000D30F04BF52000CF1010C11464FF000027D
:100AE000A0F11F00A0EB0C00704711F0004F08BFF1
:100AF000704731F000413FF4D5AF0B0C06BF09043D
:100B00004FF0100C4FF0000C0B0E04BF09020CF15B
:100B1000080C0B0F04BF09010CF1040C8B0F04BF70
:100B200089000CF1020CCB0F04BF49000CF1010C41
:100B3000CCF12003A0EB0C0022FA03F302FA0CF232
:100B400041EA030100F10100704720F07F4C80EA88
:100B5000030023F07F47ACEB070303F57C5300F061
:100B6000004003F1FF032DE980494FEA154B09B41A
:100B70004FEA144325EA0B4E24EA03480FF20426F9
:100B800006EB132749083E785FEA320203FB06674B
:100B9000C7F5000707FB06F64FEA54374FEAD6467B
:100BA00006F1020607FB066CCCF1005C4FEA1C471D
:100BB0002CEA074C07FB06F40CFB06F504EB154684
:100BC0004FEA961634BF00204FF000404FEAD1376D
:100BD00006FB07FC4FEA1C4C0CFB0BF7D21B03FB7C
:100BE0000CF761EB07010CFB0EF7B0EB074072EB63
:100BF00017420CFB08F734BFA2EB0742B2EB0742E7
:100C000061EB17414FEA0C444FEA910706FB07FCE2
:100C10004FEA1C4C0CFB0BF7B0EBC74072EB5732A2
:100C200003FB0CF734BFA2EBC742B2EBC74261EB48
:100C300057310CFB0EF7B0EBC70072EB57720CFB91
:100C400008F734BFA2EBC702B2EBC70261EB5771E2
:100C5000039F4FEA816141EA921104EBCC044FEA11
:100C6000D1374FEA826206FB07FC42EA90124FEA54
:100C700080604FEA1C4C0CFB0BF7D21B03FB0CF7FC
:100C800061EB07010CFB0EF7B0EB074072EB17426C
:100C90000CFB08F734BFA2EB0742B2EB074261EB53
:100CA00017414FEA8C554FEA910704EB9C2406FB51
:100CB00007FC4FEA1C4C0CFB0BF7B0EBC74072EB88
:100CC000573203FB0CF734BFA2EBC742B2EBC7426B
:100CD00061EB57310CFB0EF7B0EBC70072EB5772AC
:100CE0000CFB08F734BFA2EBC702B2EBC70261EB03
:100CF000577115EB4C254FEA816141EA92114FEA99
:100D000082624FEAD13742EA901206FB07FC44F1B7
:100D100000044FEA80604FEA1C4C0CFB0BF7D21B1F
:100D200003FB0CF761EB07010CFB0EF7B0EB074080
:100D300072EB17420CFB08F734BFA2EB0742B2EB91
:100D4000074261EB174115EB1C154FEA813141EA6F
:100D500092414FEA823242EA90424FEA80304FEAB3
:100D60000C7644F1000448EA03434EEA0B484FF086
:100D7000000EB2EB080C71EB030724BF6246394644
:100D80004EEB0E0E4FF0000B0018524149414BEB59
:100D90000B0BB2EB080C71EB03077BF1000B24BFCC
:100DA000624639464EEB0E0E4FF0000B00185241D2
:100DB00049414BEB0B0BB2EB080C71EB03077BF1DA
:100DC000000B24BF624639464EEB0E0E51EA020775
:100DD00018BF46F0010616EB0E7655F1000254F1ED
:100DE000000103D5BDE88901BDE80088BDE889019F
:100DF000BDE80048B619524141EB0101A3F10103DE
:100E0000704780807F7E7D7C7B7A79787776767577
:100E10007473727171706F6E6E6D6C6C6B6A6A69EF
:100E20006868676666656464636362616160605F89
:100E30005F5E5E5D5D5C5C5B5B5A5A595958585702
:100E4000575656555555545453535252525151506A
:100E500050504F4F4F4E4E4D4D4D4C4C4C4B4B4BBD
:100E60004A4A4A4949494848484747474746464603
:100E7000454545444444444343434342424242413E
:100E80004141002B9C4630D477002BD01CB54FEA53
:100E9000370703B44FF010004FF01001BAF1000F04
:100EA00006D0BCF1000FDCBF40F0080040F00801A4
:100EB0004FF000000FBCBDE810400BF1010BBBF17F
:100EC000010F08BF5FEA170722BF12F1010211F1FB
:100ED00001014FF0004143F1000300F0004043EAFC
:100EE00000007047F9D35708D0E746EA064613F1E9
:100EF000400F4FEA16461FDD13F1200FDFBF1643E8
:100F00000A46002120335B42BED0C3F1200746EAE7
:100F1000064602FA07F74FEA164646EA0706C3F105
:100F2000200722FA03F201FA07F721FA03F14FF042
:100F3000000342EA0702A7E746EA020646EA064637
:100F40004FEA164646EA0106BCBF46EA0646360C9C
:100F50004FF000034FF000024FF0000194E72DE93D
:100F6000804C9A46934670B491E8380007C831EA3D
:100F7000400C48BF34EA430C03D5FFF7E6FDFFF70A
:100F800080FFF0BCBDE8008C2DE9804C9A4693466A
:100F900070B491E8380007C810F0804F08BF13F014
:100FA000804F03D100F005F8FFF76BFFF0BCBDE800
:100FB000008C20F07F4780EA030023F07F4C07EB92
:100FC0000C03A3F57C5300F00040A3F1FE0392F064
:100FD000000F00F0B38095F0000F00F077802DE94E
:100FE00001494FEA11404FEA144621EA004800FB4C
:100FF00006FC24EA064708FB06F607FB08F800FB98
:1010000007F718EB06484CEB164C4FEA124B18EB5F
:1010100007484FEA15464CEB174022EA0B4E0BFBF4
:1010200006FC25EA06470EFB06F607FB0EFE0BFB49
:1010300007F71EEB064E4CEB164C4FF000061EEB6E
:10104000074E4CEB174B18EB0B0840F1000018EB68
:101050000E0B58EB000840F100008F1A4FF0000112
:101060003CBFC943661B14BFB5EB040C00213CBF59
:10107000C943F61B4FEA17444EEA8E0E27EA044591
:101080004FEA1C4704FB07622CEA074C05FB07F7F5
:101090000CFB05F604FB0CFC16EB074642EB174273
:1010A00016EB0C4642EB1C421BEB060658EB020209
:1010B000414146EA9E0601D5BDE80189B619524173
:1010C00041EB0101A3F10103BDE801894FEA144599
:1010D0004FEA114724EA054621EA074C05FB07F4CD
:1010E00006FB07F70CFB06F105FB0CFC11EB0741B7
:1010F00044EB17444FEA124711EB0C4144EB1C44FC
:1011000022EA074C05FB07F206FB07F70CFB06F685
:1011100005FB0CFC16EB074642EB174216EB0C46A0
:1011200042EB1C456A1854F1000148BF7047B619DC
:10113000524141EB0101A3F10103704795F0000F0B
:1011400037D04FEA11424FEA144721EA024624EA17
:10115000074C02FB07F106FB07F70CFB06F402FB4A
:101160000CFC14EB074441EB17414FEA154714EB15
:101170000C4441EB1C4125EA074C02FB07F506FB3A
:1011800007F70CFB06F602FB0CFC16EB074645EBDB
:10119000174516EB0C4645EB1C42121951F10001A4
:1011A00048BF7047B619524141EB0101A3F1010359
:1011B00070474FEA14454FEA114724EA054621EAF1
:1011C000074C05FB07F106FB07F70CFB06F24FF097
:1011D000000605FB0CFC12EB074241EB174112EB3A
:1011E0000C4251EB1C4148BF7047921841EB010182
:1011F000A3F1010370470000034901200860024980
:1012000000202C3108607047082401400449086020
:1012100003482C38016801F00101016070470000AB
:10122000342401400948816941F400718161816978
:1012300041F001018161816941F00401816104484B
:10124000016821F00F0101607047000000100240AA
:1012500000080140044801688907FCD502484C3069
:10126000006880B27047000000240140FEE770472C
:101270004FF4005000F020B802A1044802F044F9F5
:1012800072B6FEE74572726F720000000001002026
:1012900070B5044600F012F90546601C02D00448FF
:1012A0000078044400F00AF9401BA042FAD370BD54
:1012B0005400002070470000044910B50A6802423B
:1012C00002D00860FFF7F6FF10BD000014040140D3
:1012D0002DE9F84FDFF8B891002409F1040A0AF16A
:1012E000040B23460F270BF1040EC9E00125A5408E
:1012F0002A40AA427DD1674ED1F804C0ACEB060863
:10130000B44532D014DCBCF1030F3AD009DCBCF197
:10131000000F2AD0BCF1010F1CD0BCF1020F31D15B
:101320001DE0BCF1110F17D0BCF1120F2AD119E04A
:10133000B8F5881F19D006DCB8F5803F15D0B8F590
:10134000801F1FD111E0B8F5001F0ED0B8F5041FA3
:1013500018D10AE0CB6815E0CB681B1D12E0CB6802
:1013600008330FE0CB680C330CE08B682BB1012BFA
:101370004FF0080303D0456104E0042302E0056157
:1013800000E00023FF2A01D8064601E000F1040630
:101390004FEA840501D9A5F12005D6F8008007FAA7
:1013A00005FC28EA0C0803FA05F548EA0508C6F822
:1013B00000804D68ED0062D5374DAE6946F00106FC
:1013C000AE61AD6924F0030605F001050095334DCB
:1013D00006EB050CDCF80850A607360F07FA06F8EE
:1013E00025EA0805DFF8B880404503D14FF0000832
:1013F00017E044E0DFF8AC80404502D14FF001082F
:101400000FE0DFF8A480404502D14FF0020808E069
:10141000DFF89880404502D14FF0030801E04FF01B
:10142000040808FA06F848EA0508CCF808804D6870
:10143000D9F80060ED034D4601D5164300E0964310
:101440002E604D68DAF80060AD03554601D51643AD
:1014500000E096432E604D68DBF80060ED025D46CB
:1014600001D5164300E096432E604D68DEF800601B
:10147000AD02754601D5164300E096432E60641C0C
:101480000D682A46E5407FF431AFBDE8F88F0000D3
:101490000004014000001110001002400000014053
:1014A00000080140000C0140001001400014014000
:1014B0000AB1016170470904FBE700000148806838
:1014C000704700005400002070B5040025D094F847
:1014D0003D00002520B984F83C50204600F078FA01
:1014E000242084F83D002068016821F0010101609A
:1014F0002068016841F4004101602068016821F41E
:101500000041016000F0CAFB4D4A6168914201D878
:101510004C4900E04C49884201D2012070BD4B4942
:101520002368B0FBF1F15E6826F03F060E435E6073
:101530006368934206D94FF4967359434FF47A7314
:10154000B1FBF3F12368491C1E6A26F03F063143C4
:1015500019626168914210D84900401EB0FBF1F257
:10156000521CC2F30B02042A01D2042022E0B0FB79
:10157000F1F0401CC0F30B001CE0A268F2B301EBD9
:10158000C10303EB0116431EB3FBF6F35B1C43F4EC
:1015900080431B0549D092B301EBC10202EB01115C
:1015A000401EB0FBF1F0401CC0F30B0040F4804043
:1015B00040F400402168CA694CF6FF739A43104317
:1015C000C861D4E9071001432068026822F0C00214
:1015D00011430160D4E9030101432068826848F2A5
:1015E000FF339A4311438160D4E905010843216820
:1015F000CA6822F0FF021043C86001E00EE016E066
:101600002068016841F0010101602564202084F810
:101610003D00256384F83E50002070BD01EB41067B
:10162000431EB3FBF6F35B1CB3E70120C2E701EBFB
:101630004101401EB0FBF1F0401CC0F30B00B7E7C6
:10164000A086010080841E0000093D0040420F007A
:101650002DE9FF4F83B00025DDE910799A469346C6
:101660000446DDF848800095FFF728FF064694F809
:101670003D0020287CD1192301228549204600966F
:1016800001F02EF80028F5D194F83C0001286FD025
:10169000012084F83C0020680168C90703D1016873
:1016A00041F0010101602068016821F400610160DE
:1016B000222084F83D00402084F83E0025646762C3
:1016C000A4F82A90608D20857248E062CDE90086FA
:1016D00053465A462046049900F00AFF00287DD15F
:1016E000208DDFF8B491202768B1012814D002289A
:1016F000206801681ED041F4806101602068416962
:1017000080690090B6E020684169816900910168B4
:1017100041F400710160ADE02068016821F480614E
:10172000016072B62068416981690091016841F4E5
:1017300000710AE041F40061016072B620684169FD
:1017400081690091016821F48061016062B691E0D5
:10175000032868D801280CD0022843464FF0000225
:101760004946204600960FD000F0BAFFB0BB10E00B
:101770008BE032464146204601F031F870BB2068CC
:101780000069616A08706CE000F0AAFF30BB72B6B5
:1017900034E02068016821F48061016072B620683D
:1017A0000069616A0870606A401C6062208D401E9A
:1017B0002085608D401E6085384846F2A81100687B
:1017C000B0FBF1F0C0EBC00000EB80000090401EC9
:1017D000009008D020684069C04300E029E040073D
:1017E0000CD50098F3E744F8305F6773A573206960
:1017F00040F02000206162B625731AE0206801687D
:1018000041F40071016020680069616A0870606AD3
:10181000401C6062218D491E2185618D491E6185B4
:1018200062B621681BE032464146204600F0D7FFF1
:1018300018B1012007B0BDE8F08F20680069616A27
:101840000870606A401C6062218D491E2185618D8F
:10185000491E618521684A69D24352070AD4096941
:101860000170606A401C6062208D401E2085608D82
:10187000401E6085208D00287FF46AAF84F83D709B
:1018800084F83E5084F83C50D4E70220D2E70000B0
:10189000020010000000FFFF0400010060000020B3
:1018A0002DE9FF4F83B09A46DDE911979346044630
:1018B000DDF84080FFF702FE054694F83D00202841
:1018C0007FD11923012240492046009500F008FFEE
:1018D000002876D194F83C00012872D0012084F8C9
:1018E0003C0020680168C90703D1016841F001018B
:1018F00001602068016821F400610160212084F802
:101900003D00402084F83E0000262664C4F8248070
:10191000A4F82A90608D20852C48E062CDE90075FE
:1019200053465A462046049900F060FE70B930E0F4
:101930002A463946204600F085FF58B1206C04281D
:1019400004D12068016841F400710160012007B0F2
:10195000BDE8F08F606A216800780861606A401C09
:101960006062218D491E89B22185628D521E628579
:1019700022685369DB435B070BD469B100781061BF
:10198000606A401C6062208D401E2085608D401E74
:101990006085208D0028CBD12A463946204600F0AC
:1019A00079FE0028CAD154F83D0B016841F400715A
:1019B0000160202004F81E09E67766770020C6E75C
:1019C000FFE70220C3E70000020010000000FFFF55
:1019D00010B586B000210091019102910391006839
:1019E0001349884222D1134CA06940F00800A0613D
:1019F000A069694600F0080004904FF44070009020
:101A000012200190032003900B48FFF761FC0B4864
:101A1000416841F0E06141F002014160E06940F459
:101A20000010E061E06900F40010049006B010BD01
:101A30000054004000100240000C01400000014032
:101A40000248816802781144816070475400002088
:101A5000074810B5016841F010010160032000F053
:101A600075F8002000F006F800F024F8002010BD02
:101A70000020024070B50D4D04464FF47A7128786D
:101A8000B1FBF0F00A490968B1FBF0F000F0ECFAA4
:101A900048B9102C07D200222146501E00F036F81B
:101AA00000206C6070BD012070BD0000540000205B
:101AB000600000200C4808B5816941F00101816196
:101AC000816901F001010091C16941F08051C1615A
:101AD000C06900F0805000900448416821F0E06146
:101AE00041F00071416008BD00100240000001405B
:101AF000002809DB00F01F0201219140400980000D
:101B000000F1E020C0F8001170470000F0B40E4B67
:101B10001B680C46C3F30223C3F10705042D00D94B
:101B20000425191D072901D2002300E0DB1E012630
:101B300006FA05F1491E214099409E40761E164046
:101B40003143F0BC01F049BB0CED00E0064900F068
:101B5000070208684FF6FF03184040EA0220034AD4
:101B600010430860704700000CED00E00000FA052B
:101B70002DE9F0470F46050061D0434E306800F074
:101B80000700B84209D2306820F0070038433060BF
:101B9000306800F00700B84251D128683B4C8107FB
:101BA00012D5400703D5606840F4E0606060287893
:101BB000000703D5606840F4605060606068A96801
:101BC00020F0F000084360602878C00728D06868DB
:101BD000012810D02168022810D0890700292EDAA8
:101BE000616821F0030101436160FFF767FC8046F3
:101BF00041F288390DE021688903EFE78901EDE7BB
:101C0000FFF75CFCA0EB0801494502D90320BDE8C1
:101C1000F0876068696800F00C00B0EB810FEFD1CD
:101C2000306800F00700B8420BD9306820F0070098
:101C300038433060306800F00700B84201D001201E
:101C4000E5E72878400705D56068E96820F4E0609A
:101C5000084360602878000706D56068296920F489
:101C6000605040EAC100606000F038F86168084ADE
:101C7000C1F30311515CC84006490860064800687A
:101C8000FFF7F8FE0020C2E70020024000100240EB
:101C90007E530008600000205800002004480549D9
:101CA00000684968044AC1F30221515CC84070478A
:101CB00060000020001002408E53000804480549CF
:101CC00000684968044AC1F3C221515CC8407047AA
:101CD00060000020001002408E53000812A185B061
:101CE0000FC98DE80F0014A0144A006804905168D1
:101CF000134801F00C03042B10D0082B0ED1C1F3B4
:101D00008343C9031DF803000AD5516804AAC1F32F
:101D10004041515C0A4A5043B0FBF1F005B07047B6
:101D200008494843FAE700000203040506070809CA
:101D30000A0B0C0D0E0F10100102000000100240E3
:101D400000127A0000093D002DE9F84F040070D020
:101D50002078C04DC00749D06868C0F381000128D1
:101D600007D06868C0F38100022809D16868C00301
:101D700006D52868800339D560680028E7D035E0AB
:101D80006068B0F5803F0BD010B1B0F5A02F11D036
:101D9000286820F480302860286820F4802002E041
:101DA000286840F480302860606890B1FFF786FBB7
:101DB00006460AE0286840F480202860F0E700BF6B
:101DC000FFF77CFB801B642873D828688003F7D555
:101DD0000CE0FFF773FB064605E000BFFFF76EFB64
:101DE000801B6428F0D828688003F7D420789A4EA6
:101DF00080074FF001094FF0000839D5686810F0EE
:101E00000C0F07D06868C0F38100022809D1686808
:101E1000C00306D42868800714D52069012808D19A
:101E200010E02069B0B1C6F80090FFF747FB074605
:101E300005E00AE1FFF742FBC01B0228C4D828686E
:101E40008007F7D52868616920F0F80040EAC100F2
:101E500028600DE0C6F80080FFF730FB074604E07D
:101E6000FFF72CFBC01B022823D828688007F7D473
:101E7000207800072CD57948A169D9B1C0F8009025
:101E8000FFF71CFB074604E0FFF718FBC01B022806
:101E90000FD8686A8007F7D571484FF4FA51006887
:101EA000B0FBF1F0009000BF0098411E0091FAD203
:101EB0000EE080E0C0F80080FFF700FB074604E07A
:101EC000FFF7FCFAC01B022875D8686A8007F7D4B0
:101ED0002078400760D5E8690027C00008D4E86989
:101EE00040F08050E861E869012700F080500090E0
:101EF0005C480168C90513D40168834641F48071C8
:101F00000160FFF7DBFA824606E000BFFFF7D6FA72
:101F1000A0EB0A0064284ED8DBF80000C005F5D518
:101F2000E06801280AD008B1052813D0286A20F0FB
:101F300001002862286A20F0040002E0286A40F0CC
:101F400001002862E06841F2883B98B1FFF7B6FAD9
:101F500082460BE0286A40F004002862EEE700BFEA
:101F6000FFF7ACFAA0EB0A0159455AD8286A800756
:101F7000F6D50CE0FFF7A2FA824605E0FFF79EFADD
:101F8000A0EB0A0159454CD8286A8007F6D41FB146
:101F9000E86920F08050E861E06988B36968C1F3BE
:101FA0008101022944D00228C6F8608004D0FFF7DE
:101FB00085FA044638E034E0FFF780FA074604E08B
:101FC000FFF77CFAC01B02282BD828688001F7D4C1
:101FD000206AB0F5803F05D16868A16820F4003020
:101FE00008436860D4E908010843696821F4741162
:101FF00008436860C6F86090FFF760FA044606E0A0
:1020000025E000BFFFF75AFA001B022809D828680C
:102010008001F7D51BE000BFFFF750FA001B022834
:1020200002D90320BDE8F88F28688001F4D40EE0BF
:102030000128F7D06868226A00F48031914204D107
:10204000616A00F47010884201D00120EAE70020A4
:10205000E8E70000001002400000424280044242D3
:10206000600000200070004010B5401EB0F1807F7D
:1020700001D3012010BD4FF0E02460610F216017F3
:1020800001F0ABF80020A06107202061002010BD06
:1020900070B590F83C20012A26D0012480F83C40FD
:1020A000022280F83D2003685A689D6822F070067D
:1020B0000A6832435A600D4B02689A4208D0B2F166
:1020C000804F05D00A4B9A4202D00A4B9A4204D163
:1020D000496825F080031943916080F83D40002154
:1020E00080F83C10084670BD022070BD002C0140F5
:1020F000000400400008004010B586B000210091A7
:1021000001910291039100681349884221D113483B
:10211000816941F004018161816901F00401049148
:10212000816941F0080181618069022400F00800A2
:102130000490C020CDE90004694609480394FFF7E4
:10214000C7F80320CDE90004694606480394FFF769
:10215000BFF806B010BD00000004004000100240AF
:1021600000080140000C014070B5044690F83C00A6
:102170000D4601280AD0012084F83C0042B1042A0F
:1021800018D0082A2AD00C2A4DD139E0022070BD7F
:10219000206800F095FE2068816941F008018161A6
:1021A0002068816921F004018161206881692A69C0
:1021B000114311E0206800F0ABFE2068816941F412
:1021C000006181612068816921F4806181612068FA
:1021D00081692A6941EA0221816124E0206800F0D6
:1021E000C3FE2068C16941F00801C1612068C1696E
:1021F00021F00401C1612068C1692A69114311E01D
:10220000206800F0DDFE2068C16941F40061C16111
:102210002068C16921F48061C1612068C1692A69AF
:1022200041EA0221C161002084F83C0070BD10B574
:10223000040003D094F83D0010B107E0012010BD68
:10224000002084F83C00204600F01EF8022084F8AC
:102250003D00211D206800F0EFFD012084F84600BC
:1022600084F83E0084F83F0084F8400084F8410080
:1022700084F8420084F8430084F8440084F8450060
:1022800084F83D00002010BD08B50068064988426A
:1022900008D10648C16941F00201C161C06900F07E
:1022A0000200009008BD0000000400400010024041
:1022B00010B50446022249B104290ED0082913D0D2
:1022C00094F84100012816D0012010BD94F83E007A
:1022D0000128F9D184F83E200FE094F83F0001284E
:1022E000F2D184F83F2008E094F840000128EBD1B7
:1022F00084F8402001E084F841200122206800F0A9
:10230000D1FD0F492068884203D1426C42F400425B
:1023100042642068884208D0B0F1804F05D0094956
:10232000884202D00849884204D1816801F007013F
:10233000062903D0016841F001010160002010BDB1
:10234000002C0140000400400008004070B504006B
:1023500004D094F83D00002510B106E0012070BDC6
:1023600084F83C50204600F023F8242084F83D00F7
:102370002068C16821F40051C160204600F042FE8F
:102380002068016921F4904101612068416921F0D0
:102390002A0141612068C16841F40051C16025648F
:1023A000202084F83D0084F83E00002070BD00002D
:1023B00000B585B000210091019102910391006860
:1023C0000F49884219D10F48C16941F40031C161F8
:1023D000C16901F400310491816941F00401816116
:1023E0008069694600F0040004900C2000900220EF
:1023F000019003900448FEF76BFF05B000BD00009C
:102400000044004000100240000801402DE9F8435C
:10241000044690F83D001F4616460D4620284CD134
:10242000C5B1BEB194F83C00012846D0012084F823
:102430003C004FF00008C4F84080212084F83D00A3
:10244000FFF73CF8A6848146E684A068B0F5805F7B
:1024500003D004E00120BDE8F883206928B12E46AE
:102460005FF0000584F83C800EE00026FAE780214A
:10247000204600F023FEA0B9AEB116F8010B21688A
:102480004860E08C401EE084E08C4B464FF0000238
:1024900000970028EBD14FF04001204600F00EFEDF
:1024A00030B10320D7E735F8020BC0F30800E6E7A8
:1024B000202084F83D000020CDE70220CBE7FEE796
:1024C00001684A69D24352050FD46FF480624A61B1
:1024D000002140F8301F202242738173026942F0CC
:1024E0000402026101730120704700207047000060
:1024F0002DE9F84F0446006889460B9D016898460F
:10250000174641F4806101602068016841F48071E0
:10251000016000954FF0011B0022594620460A9B9E
:1025200000F0DEF84FF4007A40B120680068C00582
:1025300001D5C4F840A00320BDE8F88F216809F058
:10254000FE0008612B46284920460A9A00F0FCF854
:10255000F0BB20684169806900902A4620460A99AC
:1025600000F070F940B1206C04283AD1206801686D
:1025700041F40071016034E0FEB2B8F1010F09D0FE
:102580002168380A08612A4620460A9900F05AF95B
:102590000028E8D1206806612A4620460A9900F002
:1025A00051F90028DFD12068016841F48071016091
:1025B00000950022594620460A9B00F091F8002819
:1025C000B3D1216809F0FF0040F00100086100E08C
:1025D00007E02B46044920460A9A00F0B5F8002887
:1025E000AAD00120A8E70000020001002DE9F8436D
:1025F000044600680D46DDE90897016898461646CE
:1026000041F4807101604B4600224FF001112046D9
:10261000009700F065F848B120680068C00502D551
:102620004FF4007020640320BDE8F883216805F0B2
:10263000FE0008613B464A461549204600F084F8F2
:1026400088B920684169806900903A464946204629
:1026500000F0F8F848B1206C042804D12068016823
:1026600041F4007101600120DEE7F5B2B8F1010F1D
:1026700009D02168300A08613A464946204600F0F0
:10268000E1F80028E7D1206805610020CCE70000D0
:102690000200010070B516460D4604460DE02046C6
:1026A000FFF70EFF08B1012070BD681C05D0FEF7D2
:1026B00005FF801BA84207D835B120684069C04398
:1026C0004007ECD4002070BD002044F8300F2021DA
:1026D0006173A073216941F0200121612073E2E759
:1026E0002DE9F0471E4690460D460446C1F30747C4
:1026F000DDF8209008E0701C06D0FEF7DFFEA0EBAE
:102700000900B0420FD876B12068012F18D0806937
:1027100025EA00000004000C14D000214145EAD055
:102720000020BDE8F087002044F8300F20216173BD
:10273000A073216941F02001216120730120F0E79D
:102740004069E5E70121E9E72DE9F0479A4691461E
:102750000E46044600254FF02008C1F3074725E048
:1027600020684069C043400514D42068016841F4E2
:102770000071016021686FF480604861256384F80E
:102780003D8084F83E50206C40F00400206484F8C2
:102790003C501FE0B9F1FF3F08D0FEF78FFEA0EBE1
:1027A0000A0149450CD8B9F1000F09D02068012F62
:1027B00013D0806926EA00000004000C0BD0CFE79C
:1027C00044F8305F84F80D80A573206940F0200044
:1027D000206125730120BDE8F0874069EAE72DE913
:1027E000F041002590460E460446202717E0406938
:1027F000C043C0060CD454F8301B6FF01000486181
:1028000044F810596777A577206A2062257717E08A
:10281000FEF754FEA0EB0800B04208D83EB1206895
:102820004169C9434906E2D40020BDE8F08144F87B
:10283000305F6773A573206940F020002061257325
:102840000120F2E770B516460D4604460DE020461D
:10285000FFF736FE08B1012070BD681C05D0FEF7F9
:102860002DFE801BA84207D835B120684069C043BF
:102870000006ECD4002070BD002044F8300F202169
:102880006173A073216941F0200121612073E2E7A7
:102890002DE9F047404C206A02F032FA4FF0804AAE
:1028A0000022534600F03AFF06460D46A06902F0AA
:1028B00027FA0022534600F031FF32462B4601F042
:1028C000A7FC01F037FC06460D46E06902F018FA55
:1028D00032462B4601F058FD00F006FD2F4E002237
:1028E000334601F0FDFEDFF8B8904FF0C048424695
:1028F0004B4601F049FD2B4A2B4B02F017F901F032
:1029000055FC2063206A02F0FBF90022534600F0D8
:1029100005FF07460D46E06902F0F2F90022534632
:1029200000F0FCFE3A462B4601F072FC01F002FC7E
:102930000746A0690D4680F0004002F0E1F93A46F2
:102940002B4601F021FD00F0CFFC0022334601F0C0
:10295000C7FE42464B4601F017FD144A144B01F0E6
:1029600057FC01F023FC6063206C6064FEF7A6FD59
:1029700002F036FB2064616C02F012FC0D4902F09B
:102980004DFA0146E063E06A02F03EFBA16B02F003
:10299000E3F9A063BDE8F0870C00002000806640EA
:1029A000FB2109408FC2F5285C8FE23F48E17A1491
:1029B000AE47F93F00007A442DE9F04385B09146D7
:1029C0000E4680464FF47A72062103A88DE8070070
:1029D00001233B22D0211A48FEF73AFEBDF80C0035
:1029E00040BA01B217480180BDF80E2052BA15B2A4
:1029F0004580BDF8102052BA14B28480084601F018
:102A00001BFE6FF00D073A4602F073FC01F0CEFB9F
:102A1000C8F80000284601F00FFE3A4602F069FCB3
:102A200001F0C4FB3060204601F006FE3A4602F099
:102A300060FC01F0BBFBC9F8000005B0BDE8F08305
:102A400064000020000000202DE9F04385B091468D
:102A5000884606464FF47A72062103A88DE80700DF
:102A600001234322D0211B48FEF7F2FDBDF80C00E4
:102A700040BA01B21848C180BDF80E2052BA15B252
:102A80000581BDF8102052BA14B24481084601F005
:102A9000D3FD124F00223B4601F076FC01F086FB8D
:102AA0003060284601F0C8FD00223B4601F06CFC76
:102AB00001F07CFBC8F80000204601F0BDFD0022BB
:102AC0003B4601F061FC01F071FBC9F8000005B064
:102AD000BDE8F0836400002000000020006060403A
:102AE000F0B585B001244FF47A7504A88DE8310063
:102AF00023467522D0212348FEF7AAFD9DF8100039
:102B000068283DD180208DF80C0003AE009601238B
:102B10006B22D0211B48CDE90145FEF7C1FE0520FF
:102B2000FEF7B6FB8DF80C40009601236B22D021F6
:102B30001448CDE90145FEF7B3FE07208DF80C00DF
:102B4000009601231922D0210E48CDE90145FEF758
:102B5000A7FE00278DF80C70009601231C22D021BF
:102B60000848CDE90145FEF79BFE8DF80C700096F4
:102B700001231B22D0210348CDE90145FEF790FE39
:102B800005B0F0BD640000202DE9F041304E002575
:102B9000306880F0200030602E4F2F4C384600F017
:102BA000CBFC6D1C0A2DF9DB2AE02B4A2032111FC9
:102BB000081FFFF701FF284A2C32111F081FFFF7DB
:102BC00043FF6D1EA169206802F0C6F82060E1692C
:102BD000606802F0C1F86060216AA06802F0BCF889
:102BE000A060616AE06802F0B7F8E060A16A20695D
:102BF00002F0B2F82061E16A606902F0ADF860614C
:102C0000002DD2DC154D2068294602F007F920601E
:102C10002946606802F002F960602946A06802F067
:102C2000FDF8A0602946E06802F0F8F8E060294667
:102C3000206902F0F3F820612946606902F0EEF89D
:102C40006061306880F020003060BDE8F0810000F5
:102C50000C08014000A60E000C00002000002041DE
:102C600030B585B000242448009401940294039464
:102C7000816941F010018161816901F010010491C5
:102C8000816941F020018161816901F02001049195
:102C9000816941F004018161816901F004010491BD
:102CA000816941F0080181618069144D00F00800DC
:102CB0000490002220212846FEF7FAFB68140090B9
:102CC0000F48CDE9010469460E48FEF701FB2020BC
:102CD00000900120CDE901040220039069462846B6
:102CE000FEF7F6FA002211462820FEF70FFF2820F3
:102CF000FEF7FEFE05B030BD0010024000080140A6
:102D000000001110001001400C4810B50A49016084
:102D10000B49416000214FF480428160C0E90312F9
:102D200041618161C1610162FEF7CEFB002801D0E3
:102D3000FEF7A2FA10BD000000540040640000201D
:102D4000A086010010B58AB0002407941C216846B3
:102D50000894FDF7ACFA1E481C490160F021C0E957
:102D600001144FF4FA61C0E903148461FFF75FFABC
:102D700020BB079407A916480894FFF789F9E8B91A
:102D80006020CDE9000404200490002269460294EA
:102D90000F48FFF7E9F988B9042269460C48FFF7A4
:102DA000E3F958B9082269460948FFF7DDF928B95F
:102DB0000C2269460648FFF7D7F908B1FEF75CFA1E
:102DC0000348FFF799F90AB010BD00000004004065
:102DD000B8000020FEE7FEE770477047FEF730BE00
:102DE00030B58FB028216846FDF761FA14210AA892
:102DF000FDF75DFA02250120049000951020059052
:102E000000240004CDE9084007956846FEF79CFFC2
:102E100060B90F20CDE90A056802CDE90C40002118
:102E20000AA80E94FEF7A4FE002801D0FEF724FAAB
:102E30000FB030BD70470000F0B50268164B174C5C
:102E4000174D4FF08047984205D0B84203D0A042BA
:102E500001D0A84203D122F070064A68324398425A
:102E600005D0B84203D0A04201D0A84203D122F439
:102E70004074CA6822434C6922F0800222430260F7
:102E80008A68C2620A688262984201D10969016354
:102E900001214161F0BD0000002C01400004004010
:102EA0000008004010B501F01F030121046A994099
:102EB0008C430462016A9A401143016210BD000014
:102EC00030B5026A22F001020262026A4368846934
:102ED00024F073050C682C4322F002058A682A430B
:102EE0000A4DA8420BD122F00805CA6823F44073AA
:102EF0002A434D6922F004021D438B692B43436032
:102F0000846149684163026230BD0000002C0140C9
:102F100030B5026A22F010020262026A43688469D4
:102F20000D6824F4E64444EA05248D6822F020026A
:102F300042EA05120B4DA8420ED1CD6822F0800264
:102F400042EA05124D6923F4406343EA85038D6923
:102F500022F0400243EA850343608461496881634B
:102F6000026230BD002C014030B5026A22F480724A
:102F70000262036A4268C46923F4007324F0730593
:102F80000C682C438D6843EA05230C4DA8420ED1F2
:102F9000CD6823F4006343EA05234D6922F44052CF
:102FA00042EA05128D6923F4806342EA0512426009
:102FB000C4614968C163036230BD0000002C014058
:102FC00030B5026A22F480520262046A4268C36920
:102FD0000D6823F4E64343EA05238D6824F4005486
:102FE00044EA0534064DA84204D14D6922F48042DA
:102FF00042EA85124260C36149680164046230BDDF
:10300000002C014070B5044600680169E26821F4B3
:103010004051114301612169A06808436169084377
:103020002168CA6841F20C639A430243CA6020686F
:103030004169A26921F44071114341611E49206830
:10304000884202D1FEF73AFE01E0FEF727FE00EBD0
:10305000C00101EB0012606864218000B2FBF0F354
:10306000B3FBF1F36FF018067343B2FBF0F5B2FB5C
:10307000F0F605EB8305322303EB0515B5FBF1F5FF
:10308000B6FBF1F605F0F00505EB0615B2FBF0F620
:10309000B2FBF0F0B0FBF1F06FF01802504306EB1A
:1030A000800003EB0010B0FBF1F0216800F00F008E
:1030B0002844886070BD0000003801402DE9F041CF
:1030C000984617460E460446069D1DE0681C1BD018
:1030D0002DB1FEF7F3F9A0EB0800A84214D920683F
:1030E000C16821F4D071C1602068416921F00101FB
:1030F0004161202084F83D0084F83E00002084F8DF
:103100003C000320BDE8F0812068006836EA00003A
:1031100004D00020B842D9D00020F3E70120F9E71D
:10312000054910B5884206DB0449884203DC01F0FA
:1031300037FF0349088010BD00008642000020438D
:1031400038040040054910B5884206DB044988422E
:1031500003DC01F025FF0349088010BD0000204278
:103160000000824334040040054910B5884206DB64
:103170000449884203DC01F013FF0349088010BDB5
:103180000000F04100008C423C040040054910B5AD
:10319000884206DB0449884203DC01F001FF034951
:1031A000088010BD0000F04100000C4340040040C6
:1031B000FEE7490050EAC12018BF04204A0D18BF9D
:1031C00040F0010040F2FF72B2EB515F08BF40F0E7
:1031D0000200012808BF052070470907090E0028D2
:1031E00004DB00F1E02080F80014704700F00F00CD
:1031F00000F1E02080F8141D70472DE9F0414F1ECA
:1032000000EBC7010446D1E9000115461E4637F020
:1032100006020DD02A46334601F062FA7F1E04EB07
:10322000C703D3E9002300F0F3FF37F00602F1D122
:10323000022F25D0042F13D0062F18BFBDE8F08130
:103240002A46334601F04CFAD4E90A2300F0E0FFA5
:103250002A46334601F044FAD4E9082300F0D8FFA7
:103260002A46334601F03CFAD4E9062300F0D0FFA9
:103270002A46334601F034FAD4E9042300F0C8FFAB
:103280002A46334601F02CFAD4E9022300F0C0FFAD
:103290002A46334601F024FAD4E90023BDE8F04180
:1032A00000F0B6BF002213461046014901F06CB889
:1032B0000000F03F012202F01CB800F0A9BF00227C
:1032C00013461046114601F05FB840F2013200206B
:1032D0004FF0E04102F00DB8024A0020110702F061
:1032E00008B8000001FDFFFF2DE9F84F04460D4628
:1032F00021F0004000917349814211DC72498842FB
:1033000001DC06D12CB120462946BDE8F84FFFF775
:10331000D1BF6E48002DCCBF6D496E49BDE8F88F16
:103320006D49814211DD6D498142D8BF4FF0FF36B2
:103330006DDD20462946FFF73CFF042808BFFFF754
:10334000CBFF20462946BDE8F88F6549654F25F03B
:103350000045814233DD6449814219DD0026324651
:103360004FF080432046294600F052FF80468A46AF
:1033700001222046294601F0BCFF00223B4601F015
:10338000D5FB4246534600F0FFFF04460D463EE0A3
:1033900001260022BA463B462046294600F038FF67
:1033A00080460F46002253462046294601F0BEFBC8
:1033B00042463B4600F0E8FF04460D4627E04B49F5
:1033C00081421BDDDFF828A1022600225346204659
:1033D000294601F085F900223B4600F019FF80469E
:1033E0000F46002253462046294601F09FFB4246E5
:1033F0003B4600F0C9FF04460D4608E0032622467E
:103400002B4600203B4900F0BFFF04460D462246F4
:103410002B461046194601F063F98B468246024658
:103420000B4601F05DF907460246334888460B46D5
:1034300006217844FFF7E1FE52465B4601F050F961
:1034400082462E488B463A46434605217844FFF78C
:10345000D4FE3A46434601F043F902460B46002E9D
:10346000504659460CDA00F0D3FE22462B4601F0B6
:1034700037F901B022462B46BDE8F04F01F064BA9F
:1034800000F0C6FE22462B4601F02AF91C4A7A4477
:1034900002EBC603D3E9002301F048FB22462B468A
:1034A00001F044FB174A7A4402EBC603D3E9002338
:1034B00001F04AFA009A002AB8BF81F00041BDE845
:1034C000F88F0000000010440000F07F182D4454D5
:1034D000FB21F93FFB21F9BF0000DC3F0000203E4B
:1034E0000000F33F0000F03F0000E63F0080034093
:1034F0000000F83F0000F0BFCA1F0000881F000056
:10350000261F0000EE1E000038B505460C46084692
:10351000FCF7AEFE82B20A2321462846FEF776FF6C
:1035200004A00A2300680090022269462846FEF79C
:103530006DFF38BD0D0A0000401EFDD2704700002F
:1035400040F2EE21884201D21F48704740F23E31DE
:10355000884201D21D48704740F28E31884201D224
:103560001B48704740F2DE31884201D2194870474B
:1035700040F22E41884201D21748704740F27E4106
:10358000884201D21548704740F2CE41884201D2AC
:103590001348704740F21E51884201D211487047CB
:1035A00040F26E51884201D20F48704740F2BE513E
:1035B000884201D20D48704740F20E61884201D224
:1035C0000B4870470B4870470000E841000020425C
:1035D0000000704200008C420000A0420000B44293
:1035E0000000C8420000DC420000F042000002433C
:1035F00000000C4300000D43FEF72AFAFFF7F0FB32
:10360000FFF72EFBFFF780FB3E483D490C2201608F
:103610004FF4E131416000218160C160C0E90412D2
:103620008161C161FEF792FE08B1FDF725FEFFF74B
:1036300089FBFDF7F7FDFFF753FA324800214838C0
:10364000FEF736FE2F4804214838FEF731FE2D489C
:1036500008214838FEF72CFE2A480C214838FEF78E
:1036600027FEFFF791FADFF8A090DFF8A080DFF8DF
:10367000A0A0DFF8A0B0254A2032111F081FFFF7D5
:103680009BF9224A2C32111F081FFFF7DDF9FFF7C3
:10369000FFF8FDF7B1FD0020FDF7B8FDFDF7DAFDFD
:1036A000054601F09DFC0446FDF708FF01F098FC7B
:1036B000214600F01FFD49464446D8F8380001F085
:1036C0004BFB07465146606B01F046FB06465946E8
:1036D000206B01F041FB04462846FFF731FF054609
:1036E0003846FFF72FFD3046FFF71AFD2046FFF75B
:1036F0003BFD2846FFF74AFD0748FFF71DFFBAE7E5
:103700000044004000010020000018430C0000208D
:103710000000EA420000484200A60E002DE9F04DEC
:103720001D460C4698B0174621F0004123F0004397
:10373000002814BF4FF0010C4FF0000C0CEB440CB0
:10374000FE4A0CEB02064FEA620C66452BD33E00A4
:1037500018BF012606EB45061644F94A964222D3C5
:10376000F84A53EA070C02D0944205D148B918B080
:1037700000201146BDE8F08D002808BF4FF0000C76
:1037800001D04FF0010C0CEB440212F5001F0AD8D7
:10379000002F14BF4FF0010C4FF0000C0CEB450252
:1037A00012F5001F07D918B03A462B462146BDE84E
:1037B000F04DFFF782BD0022DFF88CA3002CB8BFCC
:1037C000534526DADFF884C36345A8BF022220DA16
:1037D000DFF870C39C451CDCDFF874C30CEB235C82
:1037E000BCF1140F08DDCCF1340627FA06FC0CFA04
:1037F00006F6BE420DD108E05FB9CCF1140623FAFB
:1038000006FC0CFA06F69E4203D10CF00102C2F14E
:10381000020251EA000C19D1002D17DA002C18BF52
:10382000022A01D0012A07D00220FCF76FFD18B050
:10383000BDE8F04DFFF736BD0220FCF767FDFFF74E
:1038400031FD18B081F00041BDE8F08DB7F1000CFA
:103850006CD1534525D104F1804212F5801201BF8D
:1038600000280020B74918B008BFBDE8F08DB54862
:10387000884207DC002DA1BF6046294618B0BDE88C
:10388000F08D07E0281E05DA80F0004118B0604690
:10389000BDE8F08DAF497944D1E9000118B0BDE829
:1038A000F08DDFF8A0C2634525D1002D1FDA19B1D4
:1038B000514512D1D8B909E0002840F0EC82A24A63
:1038C000214618B062F31E01BDE8F08D00202146AC
:1038D00018B060F31E01BDE8F08D08DA18B0234679
:1038E000BDE8F04D02460020614600F04DBD18B025
:1038F0002146BDE8F08D514518DAB5F1804F0DD065
:10390000A5F1005CBCF1FF5C10D1B4F1000C0DDB43
:1039100018B06146BDE8F04D00F00CBC234618B06D
:103920000246BDE8F04D194600F0DABE060024F06C
:10393000004C3BD1D9B1514533D1002C06DD002DCF
:10394000A1BF0020514618B0BDE8F08D002C01DD6C
:10395000002D1BDB002C13DA002D11DB012A4FF0A8
:10396000000014BF78497C4918B0BDE8F08D022AE8
:1039700018BF002C0AD0012A08D1002C06DA0AE070
:10398000002CB8BF002D11DA012A04D0002018B095
:103990000146BDE8F08D18B000204FF00041BDE8B1
:1039A000F08DA1F14050B0F17F601AD0012000EB02
:1039B000E47050EA020421D0624C521E4FF0000B1A
:1039C000104304BF4FF0000B644C654883427CDD1C
:1039D000644A654893421FDD884217DB002D25DBD2
:1039E00037E0002C00DA4AB1022A0CBF01204FF068
:1039F000FF3018B0BDE8F04D00F01EBE0120FCF70E
:103A000085FC18B0BDE8F04DFFF759BC4D4A8A421D
:103A100002DC002D0ADC1CE0814202DA002D18DAFB
:103A200004E0484B994220DD002D12DD0220FCF716
:103A30006DFCFFF74AFC05460E46002253465846E9
:103A4000214600F04DFE18B066F31E012846BDE881
:103A5000F08D0220FCF75AFCFFF73EFC0A46214697
:103A600018B062F31E01BDE8F08D002230466146B9
:103A700001F05CF880460E466FF0010201F039FC5F
:103A80004FF05532394B00F05FFF4246334600F0AD
:103A900027FE0022364B00F057FF8246424633464F
:103AA00004911046194600F01BFE5246049B00F09C
:103AB00017FE8A4600904FF0C0422E4B40463146DA
:103AC00000F00EFE2C4A2B4B00E027E0CDE906016A
:103AD0005146009800F004FE82460191274A284B87
:103AE0004046314600F0FCFD5246019B01F01EF8B5
:103AF00082460B4602460591DDE9060100F088FB8F
:103B0000DDE9062300268846304601F00FF85246CC
:103B1000059B00F019FF024600F07EB90020B1F5C8
:103B2000801F07DA35223046614601F0E2FB064687
:103B30006FF0340000EB215024E00000FFFF1F0075
:103B4000FFFF0F000000F03F0000F07F0000404347
:103B500001FCFFFF1E1C00000000F0FF0000F0BF92
:103B60000000E0410000F043FFFFEF3F5555D53F17
:103B70000000E03F4715F73FFE822B6544DF5DF80C
:103B80000BAE543EA0F2FF300190C1F3130040F0A1
:103B90007F6141F040510291FE498842D8BF002028
:103BA00004DDFD498142C8BF012001DD0D9008E020
:103BB00000200D900198401C01900298A0F5801003
:103BC00002900299F54878440B910D9900EBC100E1
:103BD000D0E900230F9330460A920B9900F0A6FF1C
:103BE000CDE90601DDE90A2130460F9B00F010FB0C
:103BF00002460B460020EA4900F0C6FB059102464A
:103C00000B460090DDE9060100F06AFD1490E548DE
:103C10008A464FF0000878440299006812904FF0ED
:103C2000005040EA61010D980F9B01EB804000F5C8
:103C3000002109910A9A129800F078FF32460B9BF6
:103C400000F082FE4246534600F04AFD06460291CD
:103C500040465146099B129A00F042FDDDE90623D9
:103C600000F072FE3246029B00F060FF059B009A56
:103C700000F036FD0091149A049053461046194600
:103C800000F02EFD06460246C7480B46029106216B
:103C90007844FFF7B2FACDE90510029B3246104690
:103CA000194600F01DFDDDE9053200F019FD059112
:103CB0000646534640461946149A00F0A9FA009B5E
:103CC000049A00F00DFD3246059B00F0A1FACDE903
:103CD0000510424653461046194600F001FD0022E9
:103CE000B24B02910A9000F093FADDE9053200F040
:103CF0008FFA0E464246AD4B404600F017FF029B3E
:103D00000A9A00F013FFDDE9053200F01DFE42467D
:103D100002910A9033461046514600F0E1FCCDE98D
:103D200006015346149A02990A9800F0D9FC8A4673
:103D30000290334642460099049800F0D1FC534665
:103D4000029A00F065FA82460B4602460591DDE9CB
:103D5000060100F05DFADDE90623002088460646EC
:103D600000F0E4FE5246059B00F0EEFD824609910C
:103D70004FF060428E4B3046414600F0B1FC04905B
:103D800006918C4A8A4B5046099900F0A9FC82465C
:103D90000291894A894B3046414600F0A1FC5246C7
:103DA000029B00F035FA864B7B440D9A03EBC2036D
:103DB000D3E9002300F02CFA0E900791019800F04F
:103DC0003BFC0591DDE9061382460E9A049800F04B
:103DD0001FFA7C4A7A440D9B02EBC303D3E900230C
:103DE0000093029200F014FA5246059B00F010FA7C
:103DF0000026884652463046059B00F097FE009B01
:103E0000029A00F093FE069B049A00F08FFE079B37
:103E10000E9A00F099FD024600200B4602903846AB
:103E2000294600F05DFC824601912B463846194632
:103E3000029A00F07BFE3246434600F051FC5246A7
:103E4000019B00F0E5F907468A463246434629467B
:103E5000029800F045FC05460E463A46534600F0EF
:103E6000D7F9594A8846914221DBA8EB020353EA6D
:103E7000000210D12A46334600F058FECDE9040175
:103E8000524A534B3846514600F0C2F9DDE904234B
:103E900000F024FD21D20220FCF738FAFFF715FAD2
:103EA0000A46214618B062F31E01BDE8F08D494B69
:103EB00028F000429A4210D3474A08EB020353EA23
:103EC00000027FF4C6AD2A46334600F02FFE3A4684
:103ED000534600F003FD7FF6BCAD0022019228F0AE
:103EE00000403E493E4A01EB2051824223DA481C01
:103EF0004FF4801121FA00F040443A4AC0F30A51CD
:103F00007A44394BA1F2FF31CB4020EA0303C0F3DE
:103F1000130040F48010C1F11401C84012680190F0
:103F2000B8F1000FBCBF404201902846314600F076
:103F3000FDFD05460E462A4633463846514600F0FA
:103F400067F94FF000084246284B4046059100F0C3
:103F5000C7FBCDE90601264A264B4046059900F0ED
:103F6000BFFB009102902A4633464046059900F077
:103F7000DDFD3A46534600F0E7FC1F4A1F4B00F0B8
:103F8000AFFB009B029A00F043F9074688460246C1
:103F90000B4635E08E9803007AB60B0066180000D9
:103FA0000000F03F9E180000CC1700000000084001
:103FB00009C7EE3FFD033ADCF5015B14E02F3EBE7E
:103FC000A41600006816000000009040FE822B65D9
:103FD0004715973C00CC904000346F3F01FCFFFF39
:103FE0000000E03FB4150000FFFF0F00432EE63F46
:103FF000396CA80C615C20BEEF39FAFE422EE63F18
:10400000DDE9060100F004F9DDE9062305460E4668
:1040100000F08CFD3A46434600F096FC0F462A46D7
:10402000334600901046194600F05AFB824602467D
:104030002E4888460B4605217844FFF7DEF85246A5
:10404000434600F04DFB2A46334600F07DFC804697
:104050008A463B4628463146009A00F041FB3B46E3
:10406000009A00F0D5F80691009000224FF08043AE
:104070004046514600F05AFD0F460C9042465346CA
:104080002846314600F02CFB3B460C9A00F07CF9A8
:10409000069B009A00F04AFD2A46334600F046FD92
:1040A0000022134B00F050FC054601980E4601EB30
:1040B00000510815002810DC28463146019A01F00D
:1040C00018F9FFF776F8042808BFFFF705F9284626
:1040D0003146019A01F00DF905460B4618B02A4603
:1040E00058462146BDE8F04D00F0FABA54140000DD
:1040F0000000F03F3EB50C4600F002FE02460B46C3
:104100000AA16846FCF76CF869460948FFF7FCF914
:10411000204600F0F5FD02460B4604A16846FCF778
:104120005FF869460248FFF7EFF93EBD25660000DB
:10413000000100202DE9F04106460F4600F010FC7A
:10414000041E0D4618BF0120284320F00040C0F196
:104150007F6000F1E040C00F0ED0301C18BF01207E
:10416000384320F00040C0F17F6000F1E040C00F14
:1041700004BF0120FCF7CAF820462946BDE8F081BB
:1041800010B500290AD00878002807D005487844DF
:10419000FCF722FC002801D0002010BD0248784422
:1041A00010BD0000E6130000DE13000021F0004205
:1041B000A2F16052B2F5801F01F0004328BFD2F196
:1041C0007F6C0BD95FEA001C43EAC20242EB5070DD
:1041D00018BF704728BF20F001007047B2F5801F5C
:1041E000BCBF184670474FEA410C1CF5001F02D2B5
:1041F000084600F0D0BF70B500F01CFB000000893D
:10420000FFF7F6BF4FF00040A0F5800070470000B8
:1042100010B591EA030F48BF83F0004300F18E848C
:10422000841A71EB030C05D2121943EB0C03001B2B
:1042300061EB0C01DFF824E14FEA1154A4EB135CAD
:104240001EEA430F18BF9EEA445F73D023EA0E03B1
:10425000DCF1200E21EA045143F4801332D322FA18
:104260000CFE10EB0E0023FA0CFE41EB0E01CCF11C
:10427000200E03FA0EFE10EB0E0051F10001B1F515
:10428000801FCCF1200E32D201EB045112FA0EF253
:10429000BDE8104058BF7047401C38BF5FEA42027B
:1042A00018BF7047002814BF20F0010041F1000141
:1042B0004FEA410313F5001F38BF7047A1F1C04119
:1042C00000F006BB012A43EB0302ACF1200CDCF149
:1042D0001F0E32BF4FF0000E23FA0CF310EB030059
:1042E00041EB0451B4EB115FD0D0A1EB045101F5C7
:1042F000801149085FEA300001EB04510ED350F100
:10430000000038BF12FA0EFE08D1BDE81040C9E720
:10431000401C38BF5FEA4202CAD1C3E7BDE8104083
:104320004FEA410313F5001F38BF7047A1F1C041A8
:1043300000F0CEBA9EEA445F08D011EA5E0FBDE8F5
:10434000104004BF01F0004100207047BDE810405C
:1043500070B500F06FFA00BF64FBBE3E0000E0FFE6
:1043600002494FF0000000F092BF00BF0000F87F4C
:10437000491058BFC1F140415B1058BFC3F14043E1
:104380008B42EFF3008070472DE9C04130B4DFF875
:10439000A0C23CEA111418BF3CEA131400F0EC80F0
:1043A00081EA03051CEA111444EAD57418BF1CEA1B
:1043B000131500F0C780A4EB05044FF0004545EA53
:1043C000C12145EAC32341EA505143EA525304F163
:1043D0007F74994204F500344FEAC0204FEAC222AC
:1043E00008BF904200F09C804FEA13650FF2401620
:1043F000765D4FEA134506FB05F7C7F1807706FBAC
:1044000007F74FEAD737A7FB03687642C8F580382D
:10441000A7FB06CE38BFA8F1010807FB08E64FF05E
:10442000000EA6FB028CE6FB03CEDCF1000CCEF105
:10443000004E38BFAEF1010EA6FB0C584FF000073E
:104440004FF00005E6FB0E87A1FB08C6A0FB07CED8
:1044500016EB0E0645F10005E1FB076515F1E04E90
:104460007EBFA4F580345FEA46066D4116F18007F1
:1044700045F100054FEA17274FEA066647EA056748
:10448000A6F1DE46B6F1805F4FEA15251FD9384602
:1044900024F0010C05EBC471BCF1FE6F01EB0C11B3
:1044A00002D8F0BCBDE8008124425CBF01F5801E4B
:1044B0009EEAC47F02D4F0BCBDE80081244238D417
:1044C000F0BCA1F1C041BDE8004100F001BA4FEAE3
:1044D000D22242EA43524FEAD323A7FB02864FEA95
:1044E000D02040EA415007FB03661EEA0E0F4FEA58
:1044F000D12105FB026658BFA6EB0056B6EB00566D
:104500004FEA520E4EEAC37E18EB0E0E56EB530ED8
:10451000BDD518EB02085E417F1C55F10005B6E7DA
:104520004FF480154FF000074FF000064FF00008E1
:10453000ADE7F0BC4FF0000001F1C04101F00041D7
:10454000BDE8008111EA0C1F0CEA131500D00CE045
:1045500013EA0C1F00F025804FF00000F0BC81EA48
:10456000030101F00041BDE80081F0BCBDE800415D
:1045700081EA030100F0ACB9F0BCBDE8004170B5C0
:1045800000F058F9097EFC3E00F007B881EA03010B
:104590004FF0000001F00041704781EA030100F094
:1045A00097B9F0BCBDE800414FF0000021497047C9
:1045B000FFFDFBF9F7F5F4F2F0EEEDEBE9E8E6E4E8
:1045C000E3E1E0DEDDDBDAD8D7D5D4D3D1D0CFCD6F
:1045D000CCCBCAC8C7C6C5C4C2C1C0BFBEBDBCBBA8
:1045E000BAB9B8B7B6B5B4B3B2B1B0AFAEADACABA3
:1045F000AAA9A8A8A7A6A5A4A3A3A2A1A09F9F9E7D
:104600009D9C9C9B9A99999897979695959493932E
:10461000929191908F8F8E8E8D8C8C8B8B8A8989C5
:104620008888878786858584848383828281818048
:104630000000FF070000F87F10F0004248BF404232
:10464000B0FA80F310FA03F10AD0C3F11D0303F5A9
:1046500080634FEA415002EB035202EBD1217047D5
:104660004FF000007047000051EA030C17D41CF50E
:10467000801F58BFBCF5801F00F10680994218BF0B
:10468000704708BF9042704707D711F5801F58BF89
:1046900013F5801F19D499427047894270471CF561
:1046A000801F08D5BCF5801FF7D58B4218BF704717
:1046B00008BF824270474FF4001C1CEB410F38BF0B
:1046C0001CEB430F01D28B42704770B500F0B2F87B
:1046D000922449004FF000514FF08053FFF748BE3D
:1046E000DFF848C170B51CEA111E1EBF1CEA131585
:1046F0009EEA0C0F95EA0C0F00F06F8081EA03042C
:1047000023EA4C134EEAD47E21EA4C1141F4801185
:1047100043F48013AE44A1FB024CA0FB0365AEF151
:104720007F7E361955EB0C05A1FB034C4CF10003C1
:10473000A0FB021C16EB0C06654153F10003094275
:1047400018BF46F0010613F4007F0BD14FEA033186
:104750004FEA0530340341EA155140EA16506FF034
:1047600003020AE04FEAC3214FEAC520F40241EAFE
:10477000555140EA56506FF0020202EB2E4201EB17
:10478000025585EACE710AD05FEA440C18BF24F0C6
:10479000004450F1000041F1000120EAD47040F2E1
:1047A000FE7C624500D270BDA84214BF4FF0804429
:1047B0004FF04044002E08BF0024BEF1806FA8BF18
:1047C000A1F1C041BDE8704080F282804FF000004E
:1047D00001F1C04101F0004170479EEA0C0F0CEA64
:1047E000131518BF95EA0C0F06D04FF0000081EAB0
:1047F000030E0EF0004170BD00F01CF88900013E70
:1048000000F007B800F009B84FEA430C5FEA5C5CBF
:1048100008D081EA030100F05BB84FEA410C5FEA7F
:104820005C5CF6D14FF00000014970470000FF07C3
:104830000000F87F0EF1020E2EF0030E5EF8046BFE
:10484000364205D4012A43EB030515F5001F12D8A3
:10485000012841EB010C1CF5001F0CD80ED14FEACA
:10486000D17C15F5001F0CEB4C0C0CF1020C08BFB1
:104870004CEBD37C04E04FF0080C01E04FEAD37C12
:104880000CEB4C0526FA05F606F00706B6F1040C0B
:1048900006D20EEB860CBDE870404CF0010C604770
:1048A000DFE80CF0090B02024FF000414FF000006E
:1048B000A1F5002170BD19461046012851EB0104F5
:1048C00018BFD4F5001484BF002001F0004170BD72
:1048D0000808A0F500114FEA3101704753EA010CB6
:1048E00017D41CF5801F58BFBCF5801F00F106804F
:1048F0008B4218BF704708BF8242704707D713F535
:10490000801F58BF11F5801F19D48B4270479B42FE
:1049100070471CF5801F08D5BCF5801FF7D599425C
:1049200018BF704708BF904270474FF4001C1CEB43
:10493000430F38BF1CEB410F01D2994270470FB4AF
:104940000CBC03BCFFF7C1BE91EA030F10B581F0A8
:1049500000413FF565AC83F0004300F0EFB8000084
:104960002DE9F04101F5801CBCF5001FC0F2C380A9
:104970004FEA115C21EA0C510CF1FD0C41F480115D
:104980005FEA5C0C0CF5C07C01D3400049413DA4BA
:10499000890241EA905187028E0E0A0CA45D04FB45
:1049A00004F602FB06F6C6F14046A4FB0662F60DCD
:1049B00046EA422606FB06F4A4FB01235242C3F159
:1049C000404338BF5B1EA6FB02420024E6FB0324E3
:1049D000D20B42EA4446A6FB0623A1FB02E2A3FB5C
:1049E00007E4A4184FF0000252F10002E3FB014279
:1049F0006442C2F1404E38BFAEF1010EA6FB042363
:104A00004FF00002E6FB0E32A2FB03464FF000041B
:104A1000B61954F10004E2FB0264A1FB06E6A4FB14
:104A200007E816EB08064FF0000858F10008E4FB11
:104A300001687642C8F1405838BFA8F10108A2FBCE
:104A400006E4A3FB08E52D194FF0000454F100041F
:104A5000E2FB0854A1FB05E6A7FB04E818EB0608F7
:104A60004FF0000656F10006E1FB048618F1200520
:104A700056F10006A809A8F11B08B10908F03F0883
:104A8000B8F10A0F40EA86601CD901EB0C51BDE871
:104A9000F08100BFFCF5EEE8E2DDD8D3CFCBC7C391
:104AA000C0BDB9B6B4B1AEACA9A7A5A3A19F9D9B4B
:104AB0009A9896959392908F8D8C8B89888786850E
:104AC00084838281A0FB006800FB01F208EB4208AE
:104AD000B8EB872807D5341858EB0104D5D5401C0E
:104AE00051F10001D1E7341A78EB0104CDD4401E16
:104AF00071F10001C9E75FEA4C0C5FEA9C5C0DD1E3
:104B000005D34FF0000001F00041BDE8F081BDE8A1
:104B1000F04170B5FFF78EFE6DDBFFBEBDE8F041E2
:104B20004FF00000004970470000F87F10B591EA8F
:104B3000030F48BF83F000433FF572AB841A71EB5B
:104B4000030C07D212198CF0004C43EB0C03001B32
:104B500061EB0C01DFF8A4E14FEA1154A4EB135C04
:104B60001EEA430F18BF9EEA445F00F0B08023EABC
:104B70006E03524221EA0451C3EB6E0338BF5B1E41
:104B8000DCF1200E25D322FA0CFE10EB0E0043FAC6
:104B90000CFE41EB0E01CCF1200E03FA0EFE10EBE1
:104BA0000E0051F10001CCF1200E29D412FA0EF2C0
:104BB00001EB0451BDE8104058BF7047401C1CBFBA
:104BC000B2F1004F704700280CBF491C20F00100D3
:104BD000704712EB020E43EB030218BF4FF0010EB9
:104BE0004EEA4202ACF1200CDCF11E0E54D943FA1D
:104BF0000CFE10EB0E0051F1FF31CCF11E0ED5D59D
:104C00000EF1010E12FA0EFE404141EB010101EBE3
:104C1000445C5FEA5C5C10D910EBDE7001EB045180
:104C200038BFBEF1004FBDE8104018BF70470028E4
:104C30000CBF491C20F00100704730D24FEAD42C41
:104C400011F5001124F400641BD0B1FA81F20B3A83
:104C5000A41AA41ED2F12003914030FA03F31943A1
:104C6000904001EBCC71002C01EB0451BDE81040E9
:104C7000A8BF704701F1C0414FF0000001F00041B2
:104C80007047B0FA80F310FA03F100D110BDE41AB6
:104C9000173C4805C90AE4E701EB045110BD49106F
:104CA00001EB0451BDE810404FEA300002E04FF044
:104CB000000170474A0008BF0042F8D0B2F5001F5B
:104CC00028BF704701F000414FF0000070479EEA96
:104CD000445F07D011EA5E0FBDE8104004BF002119
:104CE00000207047BDE8104070B5FFF7A3FD00BF7E
:104CF00040DFF63E83F00041104670470000E0FFC1
:104D000043004FEAD30C4FEA3C0C43401FBF40071F
:104D10000CF1605113F0FE4F70471CF0006F03D18F
:104D200000200CF0004170470CF0004343EA507043
:104D300010B540EACC0000F0E8F900BF0000009296
:104D40004FEA0001FFF7C4BD4FF000414FF00000F3
:104D5000A1F500217047000090EA010F48BF81F0E3
:104D6000004100F12482421A3CBF801A89184FEAA0
:104D7000D0524FF07F4C1CEA410FA2EBD15318BF29
:104D80009CEA026F00F03B804FF0004C4CEA0020A0
:104D90004CEA012121FA03FC10EB0C0C1ED202F1AB
:104DA000FF325FEA1C2040EBC25038BF70471CF056
:104DB0007F0F4FEA400C18BFBCF17F4F38BF7047E0
:104DC000C3F12003994008BF20F00100BCF17F4FE0
:104DD00038BF7047A0F1C04000F0DDB94FEA3C0099
:104DE000000A40EBC25028BF1CF0FF0F4FEA400CF6
:104DF000E6D018BFBCF17F4F38BF7047EAE79CEAA6
:104E0000026F05D010EA5C0F08BF00F00040704749
:104E100010B500F07AF900BF64FBBE3E4FF47F0C82
:104E20001CEAD0121EBF1CEAD11392EA0C0F93EABF
:104E30000C0F00F0858090EA010F48BF42F48072A9
:104E400040F4000C41F400002CF07F4120F07F4042
:104E500000B58142A2EB03020FF2081CACEB504EEE
:104E6000C0F100009EF800E04FEA4E0E00FB0EFC81
:104E700038BF49004FEA2C1C02F5FA020CFB0EF376
:104E80004FEACE1E4FEA112C4FEAC1210EEB635EB2
:104E900042EB22420EFB0CFC4FEA1C5300FB0311B9
:104EA0004FEA112C4FEA01310EFB0CFC4FEADC4CAF
:104EB00000FB0C11C14228BF09184CEB03335DF80D
:104EC00004EB10EB410143EBC250B2F57C0F38BF4D
:104ED000704729D512F0F00F1CBF00F1C04000F060
:104EE00000407047008182838485868788898B8C07
:104EF0008D8E8F919293959697999A9C9D9FA0A243
:104F0000A3A5A7A8AAACAEB0B2B3B5B7B9BCBEC092
:104F1000C2C5C7C9CCCED1D4D7D9DCDFE2E6E9EC33
:104F2000F0F3F7FAFE0000004FEA400C0CF1807C31
:104F3000BCF17E4F28BF7047B0F1C04000F02BB9E4
:104F400090EA010F0CEAD11348BF42F48072624527
:104F500038BF634507D213F47F0F16D080EA0100F3
:104F600000F00040704710B500F0CFF8097EFC3E1D
:104F700000F005B880EA010000F00040704780EAC8
:104F8000010000F0004000F006B912F47F0F04BFEA
:104F90000248704780EA010000F0FDB80000C07FC1
:104FA000C10DD1F19E0206DB4FEA002343F000431E
:104FB00023FA02F07047004207D54FEA4001B1F1F1
:104FC000FE4F02D24FF00000704710B500F09DF880
:104FD00049922480002070476FEA2000704700004B
:104FE000B0FA80F310FA03F2C3F19D030AD0D90599
:104FF00001EB1220530638BF704700F1010008BFD3
:1050000020F00100704700004FF47F0C1CEAD01222
:105010001EBF1CEAD11392EA0C0F93EA0C0F00F0AA
:10502000478090EA010F48BF42F480724FF0004C75
:105030004CEA00204CEA012102EB0302A0FB011321
:10504000A2F50002002918BF43F001035B0028BF4E
:105050004FEA330342EB22425FEA132C4CEBC2507F
:105060002EBFBCEB436FB2F57C0F70474FEA036C69
:10507000BCF1004F08BF20F00100B2F57C0F38BF33
:1050800070470BD582F0FF0212F5803FC8BF704712
:1050900000F1C040D8BF00F00040704700F5000CA0
:1050A0005FEA4C0C48BF7047B0F1C04000F073B8E5
:1050B00090EA010F0CEAD11348BF42F480726245B6
:1050C00038BF634504D280EA010000F00040704719
:1050D00010B500F01AF800BF8900013E00F007B8D3
:1050E00000F009B85FEA410C5FEA1C6C08D080EA66
:1050F000010000F050B85FEA400C5FEA1C6CF6D18A
:105100004FF00040A0F5800070470EF1020E2EF027
:10511000030E5EF8044B244204D44FEA4102B2F17C
:105120007F4F11D84FEA4003B3F17F4F0CD80ED117
:105130004FEAD07CB2F17F4F0CEB4C0C0CF1020C1F
:1051400008BF4CEBD17C04E04FF0080C01E04FEAC3
:10515000D17C0CEB4C0324FA03F404F00704B4F103
:10516000040C06D20EEB840CBDE810404CF0010C90
:105170006047DFE80CF0070802024FF00040A0F59E
:10518000800010BD0846420018BFD2F1807288BF6F
:1051900000F0004010BDFF2141EAD050C00570472B
:1051A00090EA010F48BF81F000413FF5DCAD421AA3
:1051B00004D882F00042A0EB020011444FEAD05222
:1051C0004FF07F4C1CEA410FA2EBD15318BF9CEA71
:1051D000026F4AD04FF0004C4CEA00204CEA01210B
:1051E00021FA03FCB0EB0C0C0FD412F0FE0F36D0FA
:1051F0005FEA4C001DD5001240EBC25038BF70472B
:105200001CF03F0F18BF70470BE0A2F101025FEAEC
:105210001C2040EBC25038BF70471CF07F0F18BFF6
:105220007047C3F12003994014BF401E20F00100D5
:10523000704780084FEA122308BF7047B0FA80FC1D
:10524000A2EB0C02CCF1280C60FA0CF093EA122FBE
:1052500004BF00EBC25070474FEAC3707047130A97
:105260005FEADC1008BF7047F6E79CEA026F04D0E3
:1052700010EA5C0F08BF0020704710B5FFF745FF2C
:1052800040DFF63E81F000407047FBF71EB90CF09E
:105290000F03092B08BF082000F059800A2B0BD000
:1052A000082B18BF704708BF1CF0400F0AD04FF002
:1052B00000004FF0000170471CF0400F18BF4FF086
:1052C000004070471CF0100F08D020F0704300F031
:1052D0007F4242EAD3014FEA4370704700F06040DA
:1052E00021F07F4242EA000201F07F4040EA727002
:1052F00070474FF0FF0C4CF4E06C1CEA11531CBFDC
:105300009CEA030C9445C2BFDA4201EB025170479C
:10531000002B0DD0BCF1000F0FD0002A01F000418E
:10532000A4BF41F0E04141F07F614FF000007047C1
:1053300001F000414FF00000704750EA01334FF098
:105340009B0C18BF4CF0806C7FF40AA870471CF4CB
:10535000801F11D01CF4E02F03D06FEACC3149003C
:1053600070474FF04050EFF3008222F0704242EA63
:10537000000282F3008870474FF000007047000081
:1053800000000000000001020304060708090000F5
:1053900000000102030400004FBB610567ACDD3F64
:1053A000182D4454FB21E93F9BF681D20B73EF3F4C
:1053B000182D4454FB21F93FE2652F227F2B7A3CC4
:1053C000075C143326A6813CBDCBF07A8807703C7D
:1053D000075C143326A6913CC4EB98999999C9BFF0
:1053E000711623FEC671BCBF6D9A74AFF2B0B3BF25
:1053F0009AFDDE522DDEADBF2F6C6A2C44B4A2BFE5
:105400000D5555555555D53FFF8300922449C23F50
:105410006E204CC5CD45B73F513DD0A0660DB13F84
:10542000EB0D76244B7BA93F11DA22E33AAD903F96
:10543000000000000000F03F000000000000F83F06
:1054400000000000000000000000004003B8E23F40
:10545000000000000000000006D0CF43EBFD4C3EF2
:10546000033333333333E33FFFAB6FDBB66DDB3FE7
:105470004D268F515555D53F01411DA96074D13F2F
:1054800065DBC9934A86CD3FEF4E454A287ECA3F29
:105490003E5555555555C53F93BDBE166CC166BFAB
:1054A0002CDE25AF6A56113FF16BD2C541BDBBBEA4
:1054B000D0A4BE726937663E000000000000000004
:1054C00002400000000000A00000000005400000B5
:1054D000000000C8000000000C4000000000409CDC
:1054E00000000000194000000020BCBE00000000C9
:1054F00034400000BFC91B8E00000004B54000000E
:10550000504BCFD06607E2CF010000006C41000095
:105510003E8251AADFEEA73401000000D94200000C
:10552000DCB5A0E23A301F97FFFFFFFFB445000053
:10553000FD25A0C8E9A3C14FFFFFFFFFFF3F00000B
:105540000000008000000000FF3F0000000000801D
:1055500000000000905500080000002064000000DA
:1055600028010008F45500086400002044070000EA
:10557000440100081C00000043000000F8FFFFFF8A
:105580000C0000000E0000000F0000002E000000C4
:10559000000000000000000000000000000000000B
:1055A00000000000000000000000000000000000FB
:1055B00000000000000000000000000000000000EB
:1055C00000000000000000000000000000000000DB
:1055D00000000000000000000000000000000000CB
:1055E00000000000010000001000000000000000AA
:0455F0000024F4009F
:04000005080000ED02
:00000001FF
